:020000040000FA
:0400000053EF00F0CA
:060008005A82CAEF27F046
:100018005A80D8CF4DF0E8CF4EF0E0CF4FF0E1CF87
:1000280050F0E2CF51F0D9CF52F0DACF53F0F3CFFE
:1000380054F0F4CF55F0F6CF56F0F7CF57F0F8CF8D
:1000480058F0F5CF59F0A3A42CEF00F02EEF00F0F4
:1000580037EF00F0A4A433EF00F035EF00F037EFEE
:1000680000F0D2EC09F059C0F5FF58C0F8FF57C0AE
:10007800F7FF56C0F6FF55C0F4FF54C0F3FF53C056
:10008800DAFF52C0D9FF51C0E2FF50C0E1FF4FC0B4
:10009800E0FF4EC0E8FF4DC0D8FF5A901000BDEFFA
:1000A80026F0A8C0D9FFA9C0DAFFDECFF6FFDDCF62
:1000B800F7FF0800F550250AD8A465EF00F067EFB0
:1000C80000F02DEF02F0A8C0D9FFA9C0DAFFDE2AA0
:1000D800000EDD22000E0101316F000E306F30C1BD
:1000E800F0F031C1F1F00001EE69EF69A8C0D9FF65
:1000F800A9C0DAFFDECFF6FFDDCFF7FF0800F55025
:10010800640AD8B48AEF00F08CEF00F09EEF00F09C
:10011800A8C0D9FFA9C0DAFFDECFF6FFDDCFF7FF11
:100128000800F550690AD8A49CEF00F09EEF00F093
:10013800DEEF00F0A8C0D9FFA9C0DAFFDE2A000E62
:10014800DD22AAC0D9FFABC0DAFFDFCFACF0020EC8
:10015800DE26DFCFADF0000EDD22ACC0D9FFADC08A
:10016800DAFFDECFBAF0DDCFBBF0000EBBBFFF0E6B
:10017800BC6FBD6FBE6FBF6FC06FC16FA6C082F08E
:10018800A7C083F0BAC084F0BBC085F0BCC086F0BD
:10019800BDC087F0BEC088F0BFC089F0C0C08AF07B
:1001A800C1C08BF046EC07F082C0A6F083C0A7F070
:1001B80049EF02F0A8C0D9FFA9C0DAFFDECF60F08E
:1001C800DDCF61F0F50E626F7F0E636F000E656F15
:1001D800020E646F75EC1EF0000160516111D8B415
:1001E800F8EF00F0FAEF00F016EF01F0A8C0D9FF21
:1001F800A9C0DAFFDECF60F0DDCF61F0F80E626FE4
:100208007F0E636F000E656F020E646F75EC1EF053
:10021800000160516111D8A414EF01F016EF01F04C
:1002280059EF01F0020EA8C0D9FFA9C0DAFFDE26F7
:10023800000EDD22AAC0D9FFABC0DAFFDFCFACF0D9
:10024800040EDE26DFCFADF0000EDD22ACC0D9FFF4
:10025800ADC0DAFFDECFAEF0DECFAFF0DECFB0F06C
:10026800DECFB1F0AEC0B2F0AFC0B3F0B0C0B4F002
:10027800B1C0B5F0B66BB5BFB669B6C0B7F0B6C019
:10028800B8F0B6C0B9F0B2C0BAF0B3C0BBF0B4C0F1
:10029800BCF0B5C0BDF0B6C0BEF0B7C0BFF0B8C0C6
:1002A800C0F0B9C0C1F0C2EF00F0A8C0D9FFA9C022
:1002B800DAFFDECFF6FFDDCFF7FF0800F550750A4D
:1002C800D8A469EF01F06BEF01F0ACEF01F0A8C022
:1002D800D9FFA9C0DAFFDE2A000EDD22AAC0D9FFA5
:1002E800ABC0DAFFDFCFACF0020EDE26DFCFADF019
:1002F800000EDD22ACC0D9FFADC0DAFFDECFAEF014
:10030800DDCFAFF0AEC0C2F0AFC0C3F0C46BC56BF9
:10031800C66BC76BC86BC96BA6C082F0A7C083F059
:10032800C2C084F0C3C085F0C4C086F0C5C087F0E1
:10033800C6C088F0C7C089F0C8C08AF0C9C08BF0B1
:10034800E9EC0AF082C0A6F083C0A7F049EF02F0FA
:10035800A8C0D9FFA9C0DAFFDECF60F0DDCF61F019
:10036800FB0E626F7F0E636F000E656F020E646F87
:1003780075EC1EF0000160516111D8A4C6EF01F0C0
:10038800C8EF01F0F6EF01F0020EA8C0D9FFA9C02E
:10039800DAFFDE26000EDD22AAC0D9FFABC0DAFFE5
:1003A800DFCFACF0040EDE26DFCFADF0000EDD228D
:1003B800ACC0D9FFADC0DAFFDECFAEF0DECFAFF014
:1003C800DECFB0F0DECFB1F0AE51C26FAF51C36F28
:1003D800B051C46FB151C56FC66BC76BC86BC96BE1
:1003E80090EF01F0A8C0D9FFA9C0DAFFDECFF6FF71
:1003F800DDCFF7FF0800F550250AD8A406EF02F074
:1004080008EF02F020EF02F0A8C0D9FFA9C0DAFF78
:10041800DE2A000EDD22000E686F250E676FA6C06B
:1004280069F0A7C06AF04EEC1FF0000E0001A76F3C
:10043800010EA66F49EF02F0A8C0D9FFA9C0DAFFE4
:10044800DE2A000EDD22000EA76F000EA66F49EF10
:1004580002F0A8C0D9FFA9C0DAFFDECFF6FFDDCFD2
:10046800F7FF0800F5500001676F686BA6C069F0D8
:10047800A7C06AF04EEC1FF0A8C0D9FFA9C0DAFFE8
:10048800DE2A000EDD2219EF02F012000401320507
:10049800D8A451EF02F053EF02F06DEF02F03051A3
:1004A8001F0B0009D8A45BEF02F05DEF02F06DEFBF
:1004B80002F00C8E030E3119D8A465EF02F067EF35
:1004C80002F06BEF02F0010E2A6E6DEF02F0000EE3
:1004D8002A6E3251D8A473EF02F075EF02F005EFDF
:1004E80004F030511F0B020AD8A47DEF02F07FEF11
:1004F80002F005EF04F034510F0B0009D8B487EF70
:1005080002F089EF02F005EF04F034510F0B0001FF
:10051800746F030E746193EF02F095EF02F005EF2C
:1005280004F0200E01013519D8A49DEF02F09FEFC9
:1005380002F005EF04F00C8E040134BFA6EF02F0C0
:10054800A8EF02F0C8EF02F034510F0B0001746FEE
:100558007451020D0A0EF324D96E010EF420DA6EDE
:10056800DECF79F0DDCF7AF0040134510F0B0001B2
:10057800746F756B150E7425D96E000E7521DA6EC1
:10058800DF50786FE6EF02F034510F0B0001746F03
:100598007451020D0F0EF324D96E000EF420DA6E9A
:1005A800DECF79F0DDCF7AF0040134510F0B000172
:1005B800746F756B180E7425D96E000E7521DA6E7E
:1005C800DF50786F78B1EBEF02F0EDEF02F0F5EF66
:1005D80002F0FB0E7915796FFF0E7A157A6FFAEF34
:1005E80002F0040E7911796F7A517A6F040134BFE1
:1005F80000EF03F002EF03F014EF03F034510F0B98
:100608000001746F7451020D0A0EF324D96E010EA5
:10061800F420DA6E79C0DEFF7AC0DDFF24EF03F044
:1006280034510F0B0001746F7451020D0F0EF32437
:10063800D96E000EF420DA6E79C0DEFF7AC0DDFFD5
:10064800030E04013119D8A42CEF03F02EEF03F0A8
:100658006AEF03F079C0D9FF7AC0DAFF0001DFAE94
:1006680038EF03F03AEF03F05CEF03F0040134BF16
:1006780040EF03F042EF03F050EF03F034510F0B5B
:100688000001746F756B150E7425D96E000E7521F7
:10069800DA6EDF825CEF03F034510F0B0001746FE8
:1006A800756B180E7425D96E000E7521DA6EDF820F
:1006B80079C0D9FF7AC0DAFF000EDB8479C0D9FF90
:1006C8007AC0DAFF000EDB8E05EF04F0040E00019D
:1006D8007919796F7A517A6F79C0D9FF7AC0DAFFC0
:1006E800DFAE79EF03F07BEF03F097EF03F079C00B
:1006F800D9FF7AC0DAFF7F0EDF1679C0D9FF7AC03A
:10070800DAFF000EDB8C000E6D6F050E6C6F79C082
:100718006EF07AC06FF0000E716F020E706FBCEC55
:1007280022F09DEF03F079C0D9FF7AC0DAFF000EFE
:10073800DB8C040E00017919796F7A517A6F78B3DE
:10074800A8EF03F0AAEF03F0B5EF03F079C0D9FFE3
:100758007AC0DAFFDFAEB3EF03F0B5EF03F0EDEFE9
:1007680003F0040134BFBBEF03F0BDEF03F0CBEFA0
:1007780003F034510F0B0001746F756B150E74255F
:10078800D96E000E7521DA6EDF92D7EF03F034517F
:100798000F0B0001746F756B180E7425D96E000E5F
:1007A8007521DA6EDF9279C0D9FF7AC0DAFF3B0E85
:1007B800DF16000E6D6F050E6C6F79C06EF07AC093
:1007C8006FF0000E716F020E706FBCEC22F0F3EF49
:1007D80003F079C0D9FF7AC0DAFF3B0EDF160401B7
:1007E80034510F0B0001746F756B6A0E7425766FA8
:1007F8000F0E7521776F76C0D9FF77C0DAFFFE0E2E
:10080800DF16120004013205D8A40DEF04F00FEF33
:1008180004F029EF04F030511F0B0009D8A417EF9A
:1008280004F019EF04F029EF04F00C8E030E3119CF
:10083800D8A421EF04F023EF04F027EF04F0010E11
:100848002A6E29EF04F0000E2A6E3251D8A42FEF39
:1008580004F031EF04F0ADEF05F030511F0B020A40
:10086800D8A439EF04F03BEF04F0ADEF05F03451B4
:100878000F0B0009D8B443EF04F045EF04F0ADEFD7
:1008880005F034510F0B426E030E42604EEF04F038
:1008980050EF04F0ADEF05F0200E01013519D8A492
:1008A80058EF04F05AEF04F0ADEF05F00C8E040198
:1008B80034BF61EF04F063EF04F080EF04F03451CB
:1008C8000F0B426E4250020D0A0EF324D96E010E30
:1008D800F420DA6EDECF47F0DDCF48F034510F0B4D
:1008E800426E436A150E4224D96E000E4320DA6E1A
:1008F800DF50466E9BEF04F034510F0B426E4250AE
:10090800020D0F0EF324D96E000EF420DA6EDECF3E
:1009180047F0DDCF48F034510F0B426E436A180E92
:100928004224D96E000E4320DA6EDF50466E46B080
:10093800A0EF04F0A2EF04F0AAEF04F0FB0E4714B6
:10094800476EFF0E4814486EAFEF04F0040E4710D0
:10095800476E4850486E34BFB4EF04F0B6EF04F069
:10096800C7EF04F034510F0B426E4250020D0A0ECD
:10097800F324D96E010EF420DA6E47C0DEFF48C0BA
:10098800DDFFD6EF04F034510F0B426E4250020DDA
:100998000F0EF324D96E000EF420DA6E47C0DEFF86
:1009A80048C0DDFF030E3119D8A4DDEF04F0DFEFF6
:1009B80004F017EF05F047C0D9FF48C0DAFFDFAEF3
:1009C800E8EF04F0EAEF04F009EF05F034BFEFEFC9
:1009D80004F0F1EF04F0FEEF04F034510F0B426E17
:1009E800436A150E4224D96E000E4320DA6EDF8268
:1009F80009EF05F034510F0B426E436A180E42247A
:100A0800D96E000E4320DA6EDF8247C0D9FF48C096
:100A1800DAFF000EDB8447C0D9FF48C0DAFF000EBA
:100A2800DB8EADEF05F0040E4718476E4850486E50
:100A380047C0D9FF48C0DAFFDFAE25EF05F027EF42
:100A480005F043EF05F047C0D9FF48C0DAFF7F0E35
:100A5800DF1647C0D9FF48C0DAFF000EDB8C000E56
:100A68003B6E050E3A6E47C03CF048C03DF0000EA4
:100A78003F6E020E3E6E01EC23F049EF05F047C0D1
:100A8800D9FF48C0DAFF000EDB8C040E4718476E0A
:100A98004850486E46B253EF05F055EF05F060EF49
:100AA80005F047C0D9FF48C0DAFFDFAE5EEF05F0BA
:100AB80060EF05F096EF05F0040134BF66EF05F02E
:100AC80068EF05F075EF05F034510F0B426E436A7D
:100AD800150E4224D96E000E4320DA6EDF9280EFA5
:100AE80005F034510F0B426E436A180E4224D96E3A
:100AF800000E4320DA6EDF9247C0D9FF48C0DAFF04
:100B08003B0EDF16000E3B6E050E3A6E47C03CF0FA
:100B180048C03DF0000E3F6E020E3E6E01EC23F021
:100B28009CEF05F047C0D9FF48C0DAFF3B0EDF163F
:100B3800040134510F0B426E436A6A0E4224446E1C
:100B48000F0E4320456E44C0D9FF45C0DAFFFE0EA4
:100B5800DF161200000E0101EC6F040EEB6F000EA1
:100B6800F06F000EEF6F5EEF06F0010E0101EF254A
:100B7800ED6F000EF021EE6F49EF06F0EFC160F067
:100B8800F0C161F0000E636F1A0E626FA2EC27F0DD
:100B98003A0E00016025D96E010E6121DA6EEDC1B1
:100BA80060F0EEC161F0000E636F1A0E626FA2EC86
:100BB80027F03A0E00016025E16E010E6121E26E18
:100BC800DE50E65CDE50E658D8B0EDEF05F0EFEF0A
:100BD80005F046EF06F0EFC160F0F0C161F0000EDD
:100BE800636F1A0E626FA2EC27F0380E00016025C1
:100BF800D96E010E6121DA6E11EECFF0190EDBCF3E
:100C0800E3FFE806FCE2EDC160F0EEC161F0000E22
:100C1800636F1A0E626FA2EC27F0380E0001602590
:100C2800D96E010E6121DA6EEFC160F0F0C161F09A
:100C3800000E636F1A0E626FA2EC27F0380E0001E7
:100C48006025E16E010E6121E26E190EDBCFE3FF34
:100C5800E806FCE221EECFF0EDC160F0EEC161F0F4
:100C6800000E636F1A0E626FA2EC27F0380E0001B7
:100C78006025E16E010E6121E26E190EDBCFE3FF04
:100C8800E806FCE20101ED4BEE2BED51EB5DEC517A
:100C9800800A0001E26F0101EE51800A0001E25969
:100CA800D8B059EF06F05BEF06F0C2EF05F001018E
:100CB800EF4BF02BEF51EB5DEC51800A0001E26F36
:100CC8000101F051800A0001E259D8B06EEF06F038
:100CD80070EF06F0B9EF05F0B8EC08F01F0E01014F
:100CE800356579EF06F07BEF06F070EF06F060A24D
:100CF80080EF06F082EF06F084EF06F070EF06F062
:100D0800ECEC0BF0000E0101F26F000EF16FF1C177
:100D180060F0F2C161F0000E0001636F1A0E626F9D
:100D2800A2EC27F0440E00016025D96E010E612166
:100D3800DA6EDE04DE10D8A4A4EF06F0A6EF06F003
:100D480035EF07F0F1C160F0F2C161F0000E636F9A
:100D58001A0E626FA2EC27F03C0E00016025D96ED6
:100D6800010E6121DA6EDECFE2F0DECFE3F0DECFF6
:100D7800E4F0DECFE5F0F1C160F0F2C161F0000E01
:100D8800636F1A0E626FA2EC27F0400E0001602517
:100D9800D96E010E6121DA6EDECFE6F0DECFE7F024
:100DA800DECFE8F0DECFE9F0E251E625EA6FE35165
:100DB800E721EB6FE451E821EC6FE551E921ED6F94
:100DC80079EC27F00001EA51605DEB516159EC5173
:100DD8006259ED516359D8A0F4EF06F0F6EF06F02A
:100DE80035EF07F0F1C160F0F2C161F0000E636FFA
:100DF8001A0E626FA2EC27F0400E00016025D96E32
:100E0800010E6121DA6E79EC27F0000160C0DEFF87
:100E180061C0DEFF62C0DEFF63C0DEFFF1C160F0CB
:100E2800F2C161F0000E636F1A0E626FA2EC27F038
:100E3800460E00016025D96E010E6121DA6EDECF03
:100E4800E9F1DDCFEAF102D835EF07F0050001013D
:100E5800FA6EE951FD6EEA51FE6EF850FF6EFA50D7
:100E680012000101F14BF22BF25109E1050EF15D7F
:100E7800D8A041EF07F043EF07F08BEF06F070EFD3
:100E880006F0120084C09CF085C09DF086C09EF0DC
:100E980087C09FF088C0A0F089C0A1F08AC0A2F0E6
:100EA8008BC0A3F00001A3BF5CEF07F05FEF07F072
:100EB800010E60EF07F0000E9A6F9B6B9A519B1121
:100EC800D8B469EF07F06BEF07F07BEF07F0A31FCB
:100ED800A21FA11FA01F9F1F9E1F9D1F9C6D000E7C
:100EE8009D239E239F23A023A123A223A323EFBFF7
:100EF80080EF07F082EF07F083EF07F0F093EFBF82
:100F080090EF07F0EF5106E1EE05D8B08EEF07F04D
:100F180090EF07F096EF07F0000E976F010E966FAF
:100F28009AEF07F0EEC096F0EFC097F030C198F056
:100F380031C199F09A519B11D8A4A5EF07F0A7EFFA
:100F480007F0AEEF07F0F0A5ACEF07F0AEEF07F053
:100F5800B1EF07F09807D8A09907000EA56F1F0EEC
:100F6800A46F000E0101BF6F37EF08F0A407D8A0E7
:100F7800A507A00EA425D96E010EA521DA6E9CC086
:100F880060F09DC061F09EC062F09FC063F0A0C099
:100F980064F0A1C065F0A2C066F0A3C067F00A0EB5
:100FA800686F000E696F000E6A6F000E6B6F000E9F
:100FB8006C6F000E6D6F000E6E6F000E6F6FB0ECF1
:100FC8000FF060C08CF061C08DF062C08EF063C01D
:100FD8008FF064C090F065C091F066C092F067C071
:100FE80093F08CC072F08EC073F07CEC26F0000198
:100FF8007251300FDF6E9607D8A097079807D8A0D0
:1010080099079CC060F09DC061F09EC062F09FC0CF
:1010180063F0A0C064F0A1C065F0A2C066F0A3C0F0
:1010280067F00A0E686F000E696F000E6A6F000E97
:101038006B6F000E6C6F000E6D6F000E6E6F000E02
:101048006F6FBEEC0CF060C09CF061C09DF062C098
:101058009EF063C09FF064C0A0F065C0A1F066C0B8
:10106800A2F067C0A3F00001A5BF43EF08F0A551A7
:1010780008E1A405D8A043EF08F045EF08F075EFA4
:1010880008F09C519D119E119F11A011A111A21150
:10109800A311D8A452EF08F054EF08F0BAEF07F004
:1010A80097BF61EF08F0975106E19605D8B05FEF5A
:1010B80008F061EF08F0BAEF07F099BF6CEF08F09D
:1010C800995108E19805D8A06CEF08F06EEF08F088
:1010D80075EF08F0F0B373EF08F075EF08F0BAEFAA
:1010E80007F09A519B11D8A47CEF08F07EEF08F026
:1010F80085EF08F0F0A583EF08F085EF08F0A3EF7F
:1011080008F0A407D8A0A5079A519B11D8A48FEF7F
:1011180008F091EF08F097EF08F0000E956F2B0E8E
:10112800946F9BEF08F0000E956F2D0E946FA00E34
:10113800A425D96E010EA521DA6E94C0DFFF82C006
:1011480077F083C078F0A00EA425796F010EA52151
:101158007A6F98C07BF099C07CF0B4EC1FF077C030
:1011680082F078C083F0120001013505D8A4BFEFE2
:1011780008F0C1EF08F0CEEF08F060BAC6EF08F04B
:10118800C8EF08F0CEEF08F0000E656E6480648842
:10119800020E356F65A4D3EF08F0D5EF08F0DFEF46
:1011A80008F064A4DAEF08F0DCEF08F0DFEF08F0ED
:1011B80065949DEC26F060A2E4EF08F0E6EF08F0F5
:1011C800E9EF08F0A494D1EF09F065A0EEEF08F07C
:1011D800F0EF08F0FEEF08F064A0F5EF08F0F7EF85
:1011E80008F0FEEF08F0C5EC11F0A384040E01012D
:1011F800356F659065A803EF09F005EF09F00EEF6C
:1012080009F064A80AEF09F00CEF09F00EEF09F0F5
:101218004CEC27F065AC13EF09F015EF09F042EF3D
:1012280009F064AC1AEF09F01CEF09F02BEF09F094
:10123800000E00016D6F730E6C6F000E6E6F000E66
:101248006F6F000E716F010E706FBCEC22F0659C21
:1012580018EC27F00001F851D8B435EF09F037EF52
:1012680009F038EF09F0F807F851D8A43EEF09F073
:1012780040EF09F042EF09F00FEC1DF065AA47EFC7
:1012880009F049EF09F052EF09F064AA4EEF09F0AE
:1012980050EF09F052EF09F0C1EC24F065A257EFC6
:1012A80009F059EF09F070EF09F064A25EEF09F058
:1012B80060EF09F070EF09F07F0E00016D6F6C6947
:1012C800000E6E6F000E6F6F000E716F010E706F63
:1012D800BCEC22F0000E676E040E0101356177EF59
:1012E80009F079EF09F07CEF09F0A494D1EF09F047
:1012F80064A681EF09F083EF09F0D0EF09F0000E42
:1013080000017E6F65A68BEF09F08DEF09F0D0EF35
:1013180009F061CFFDF0FD31E832E8320F0BF96FCB
:101328006596FDB59AEF09F09CEF09F0A5EF09F075
:10133800150EF925D96EDA6A000EDA22DF70ACEFE5
:1013480009F0180EF925D96EDA6A000EDA22DF7074
:10135800F951D8A4B2EF09F0B4EF09F0B8EF09F0E9
:1013680019EC20F0C6EF09F0000E6D6F720E6C6F6D
:10137800FD0E6E6F000E6F6F000E716F000E706FB6
:10138800BCEC22F000017E2B030E7E65CEEF09F047
:10139800D0EF09F086EF09F0A49412000101350599
:1013A800D8A4D9EF09F0DBEF09F0E8EF09F060BA4B
:1013B800E0EF09F0E2EF09F0E8EF09F0000E656EE2
:1013C80064806488020E356F65A4EDEF09F0EFEFD5
:1013D80009F0F9EF09F064A4F4EF09F0F6EF09F069
:1013E800F9EF09F06594DCEC26F060A2FEEF09F055
:1013F80000EF0AF003EF0AF0A494E8EF0AF065A002
:1014080008EF0AF00AEF0AF018EF0AF064A00FEFED
:101418000AF011EF0AF018EF0AF06DEC12F0A3844D
:10142800040E0101356F659065A81DEF0AF01FEFE6
:101438000AF028EF0AF064A824EF0AF026EF0AF071
:1014480028EF0AF063EC27F065AC2DEF0AF02FEFD8
:101458000AF05BEF0AF064AC34EF0AF036EF0AF0FA
:1014680044EF0AF0000E3B6E730E3A6E000E3C6EAF
:10147800000E3D6E000E3F6E010E3E6E01EC23F035
:10148800659C32EC27F00001F851D8B44EEF0AF011
:1014980050EF0AF051EF0AF0F807F851D8A457EFC7
:1014A8000AF059EF0AF05BEF0AF087EC1DF065AA25
:1014B80060EF0AF062EF0AF06BEF0AF064AA67EFD8
:1014C8000AF069EF0AF06BEF0AF0F1EC24F065A27C
:1014D80070EF0AF072EF0AF088EF0AF064A277EF73
:1014E8000AF079EF0AF088EF0AF07F0E3B6E3A684F
:1014F800000E3C6E000E3D6E000E3F6E010E3E6EFD
:1015080001EC23F0000E676E040E010135618FEFC8
:101518000AF091EF0AF094EF0AF0A494E8EF0AF0C9
:1015280064A699EF0AF09BEF0AF0E7EF0AF0000EC5
:101538004C6E65A6A2EF0AF0A4EF0AF0E7EF0AF0F6
:1015480061CFFDF00001FD31E832E8320F0BF96F91
:101558006596FDB5B2EF0AF0B4EF0AF0BDEF0AF0F8
:10156800150EF925D96EDA6A000EDA22DF70C4EF9B
:101578000AF0180EF925D96EDA6A000EDA22DF7041
:10158800F951D8A4CAEF0AF0CCEF0AF0D0EF0AF06C
:1015980076EC20F0DEEF0AF0000E3B6E720E3A6E2B
:1015A800FD0E3C6E000E3D6E000E3F6E000E3E6E50
:1015B80001EC23F04C2A030E4C64E5EF0AF0E7EF48
:1015C8000AF09DEF0AF0A49412000001EFBFEFEFBC
:1015D8000AF0F1EF0AF0F2EF0AF0F093EFBFFFEF35
:1015E8000AF0EF5106E1EE05D8B0FDEF0AF0FFEF83
:1015F8000AF005EF0BF0000E956F010E946F09EFDE
:101608000BF0EEC094F0EFC095F030C196F031C108
:1016180097F084C098F085C099F086C09AF087C08A
:101628009BF088C09CF089C09DF08AC09EF08BC05A
:101638009FF0000EA16F1F0EA06F000E0101BF6F7B
:101648009DEF0BF0A007D8A0A107A00EA025D96E8A
:10165800010EA121DA6E98C060F099C061F09AC0BD
:1016680062F09BC063F09CC064F09DC065F09EC0B2
:1016780066F09FC067F00A0E686F000E696F000E73
:101688006A6F000E6B6F000E6C6F000E6D6F000EB0
:101698006E6F000E6F6FE5EC1EF060C08CF061C0DD
:1016A8008DF062C08EF063C08FF064C090F065C0AA
:1016B80091F066C092F067C093F000018C51300F32
:1016C800DF6E9407D8A095079607D8A0970798C00B
:1016D80060F099C061F09AC062F09BC063F09CC052
:1016E80064F09DC065F09EC066F09FC067F00A0E6A
:1016F800686F000E696F000E6A6F000E6B6F000E48
:101708006C6F000E6D6F000E6E6F000E6F6F96ECB3
:101718001CF060C098F061C099F062C09AF063C094
:101728009BF064C09CF065C09DF066C09EF067C0E9
:101738009FF00001A051A111D8B4A5EF0BF0A7EFBD
:101748000BF0D7EF0BF0985199119A119B119C113E
:101758009D119E119F11D8A4B4EF0BF0B6EF0BF0BA
:1017680026EF0BF095BFC3EF0BF0955106E19405FA
:10177800D8B0C1EF0BF0C3EF0BF026EF0BF097BF1B
:10178800CEEF0BF0975108E19605D8A0CEEF0BF0FD
:10179800D0EF0BF0D7EF0BF0F0B3D5EF0BF0D7EF9E
:1017A8000BF026EF0BF082C077F083C078F0A00E24
:1017B800A025796F010EA1217A6F96C07BF097C0A2
:1017C8007CF0B4EC1FF077C082F078C083F0120090
:1017D800A3940001F251F311D8B4F5EF0BF0F7EF31
:1017E8000BF005EF0CF0F2C0D9FFF3C0DAFFDFAE63
:1017F80000EF0CF002EF0CF005EF0CF0A384BDEF46
:101808000CF0030E2D18D8A40CEF0CF00EEF0CF012
:1018180010EF0CF0000E2D6E2D50D8A416EF0CF022
:1018280018EF0CF01BEF0CF0A384BDEF0CF0020EC8
:101838002D18D8A422EF0CF024EF0CF037EF0CF0A1
:10184800010E606F000E616F000E626F000E636F15
:10185800020EB4EC13F060C0F2F061C0F3F0030EB6
:101868002D6EBCEF0CF02D04D8A43DEF0CF03FEF2B
:101878000CF0BCEF0CF0400EF76545EF0CF047EFAD
:101888000CF04BEF0CF0400E6C6F4DEF0CF0F7C006
:101898006CF06C51F75DF76F000E0101286F050EB3
:1018A800296F6CC06BF00001F651D8A45EEF0CF004
:1018B80060EF0CF08EEF0CF073EF0CF02BC1D9FF3A
:1018C8002CC1DAFF28C1E1FF29C1E2FFDFCFE7FF22
:1018D8000101284B292B2B4B2C2B00016B076B513B
:1018E800D8A479EF0CF07BEF0CF062EF0CF096EFD8
:1018F8000CF02BC1D9FF2CC1DAFF28C1E1FF29C1A7
:10190800E2FFDFCFE7FF0101284B292B2B4B2C2BC4
:1019180000016B076B51D8A494EF0CF096EF0CF014
:101928007DEF0CF0F751D8A49CEF0CF09EEF0CF073
:10193800ADEF0CF0400E6C19D8A4A5EF0CF0A7EF92
:101948000CF0ABEF0CF0020E2D6EADEF0CF0030EA9
:101958002D6E010E606F000E616F050E626F6CC018
:1019680063F0020EB4EC13F060C0F2F061C0F3F063
:10197800A3841200000E0001716F6FBFC8EF0CF056
:10198800C6EF0CF0DAEF0CF06F1F6E1F6D1F6C1FA7
:101998006B1F6A1F691F686D000E69236A236B231A
:1019A8006C236D236E236F23010E716F67BFE1EF08
:1019B8000CF0DFEF0CF0F3EF0CF0671F661F651FEC
:1019C800641F631F621F611F606D000E6123622325
:1019D80063236423652366236723010E711B20EEAE
:1019E80072F0070EDE6AE806FDE2685169116A11B5
:1019F8006B116C116D116E116F11D8B406EF0DF0EB
:101A080008EF0DF05AEF0DF0010E706F16EF0DF0A4
:101A1800D890683769376A376B376C376D376E37E8
:101A28006F37702B6FAF1BEF0DF01DEF0DF00CEF44
:101A38000DF0D89072377337743775377637773734
:101A4800783779376851605D695161596A516259CF
:101A58006B5163596C5164596D5165596E51665992
:101A68006F516759D8A03BEF0DF03DEF0DF04EEFE9
:101A78000DF06851605F6951615B6A51625B6B513F
:101A8800635B6C51645B6D51655B6E51665B6F5156
:101A9800675B7281D8906F336E336D336C336B3301
:101AA8006A3369336833702F1DEF0DF07151D8B464
:101AB80060EF0DF062EF0DF072EF0DF0791F781FF7
:101AC800771F761F751F741F731F726D000E7323A7
:101AD80074237523762377237823792372C060F0E3
:101AE80073C061F074C062F075C063F076C064F0D2
:101AF80077C065F078C066F079C067F0120060C002
:101B08006AF061C06BF0000164516511D8A48FEFD1
:101B18000DF091EF0DF093EF0DF03EEF0EF06AC06F
:101B2800D9FF6BC0DAFF62C0DFFF64516A25666FB8
:101B380065516B21676FFF0E6625D96EFF0E672111
:101B4800DA6E62C0DFFF655107E1030E645DD8B04D
:101B5800B0EF0DF0B2EF0DF0B4EF0DF03EEF0EF078
:101B680020EE01F06A51D9266B51DA2262C0DFFFFC
:101B780020EE02F06A51D9266B51DA2262C0DFFFEB
:101B880064516A25666F65516B21676FFE0E662585
:101B9800D96EFF0E6721DA6E62C0DFFF64516A25D5
:101BA800666F65516B21676FFD0E6625D96EFF0E56
:101BB8006721DA6E62C0DFFF655107E1070E645DD9
:101BC800D8B0E9EF0DF0EBEF0DF0EDEF0DF03EEFD3
:101BD8000EF020EE03F06A51D9266B51DA2262C06A
:101BE800DFFF64516A25666F65516B21676FFC0ED4
:101BF8006625D96EFF0E6721DA6E62C0DFFF655178
:101C080007E1090E645DD8B00CEF0EF00EEF0EF090
:101C180010EF0EF03EEF0EF06AC066F06BC067F092
:101C2800661F671F664B672B030E6615686F696B27
:101C380068516A2769516B236851645F6951655B14
:101C4800FC0E6417FF0E651735EF0EF06AC0D9FF5A
:101C58006BC0DAFF62C0DFFF6407D8A065076A4B74
:101C68006B2B64516511D8A43CEF0EF03EEF0EF0DB
:101C78002AEF0EF012002EC038F02FC039F0325083
:101C88003310D8A44AEF0EF04CEF0EF04EEF0EF0E2
:101C9800F9EF0EF038C0D9FF39C0DAFF30C0DFFFE6
:101CA80032503824346E33503920356EFF0E3424C8
:101CB800D96EFF0E3520DA6E30C0DFFF335007E1F2
:101CC800030E325CD8B06BEF0EF06DEF0EF06FEFD5
:101CD8000EF0F9EF0EF020EE01F03850D926395009
:101CE800DA2230C0DFFF20EE02F03850D926395012
:101CF800DA2230C0DFFF32503824346E33503920B6
:101D0800356EFE0E3424D96EFF0E3520DA6E30C0E3
:101D1800DFFF32503824346E33503920356EFD0ED3
:101D28003424D96EFF0E3520DA6E30C0DFFF335011
:101D380007E1070E325CD8B0A4EF0EF0A6EF0EF064
:101D4800A8EF0EF0F9EF0EF020EE03F03850D92688
:101D58003950DA2230C0DFFF32503824346E335025
:101D68003920356EFC0E3424D96EFF0E3520DA6E1C
:101D780030C0DFFF335007E1090E325CD8B0C7EF3F
:101D88000EF0C9EF0EF0CBEF0EF0F9EF0EF038C001
:101D980034F039C035F0341E351E344A352A030E66
:101DA8003414366E376A3650382637503922365052
:101DB800325E3750335AFC0E3216FF0E3316F0EFF0
:101DC8000EF038C0D9FF39C0DAFF30C0DFFF320665
:101DD800D8A03306384A392A32503310D8A4F7EF3E
:101DE8000EF0F9EF0EF0E5EF0EF01200800E040190
:101DF8003019D8A402EF0FF004EF0FF0AFEF0FF097
:101E0800C00E0C6E95EF0FF0660E096E7F0E0A6E0F
:101E1800000E0E6E120E0D6EAFEF0FF00401325170
:101E2800D8A419EF0FF01BEF0FF05BEF0FF0325152
:101E3800020DD30EF324F66E7E0EF420F76E090021
:101E4800F5CF09F00A00F5CF0AF0020E09240001C7
:101E5800606F000E0A20616F60C0F6FF61C0F7FF77
:101E6800F86A070EF76403D00800F55005D0F6CFDE
:101E7800E1FFF7CFE2FFE7500D6E030E09240001E2
:101E8800606F000E0A20616F60C0F6FF61C0F7FF47
:101E9800F86A070EF76403D00800F55005D0F6CFAE
:101EA800E1FFF7CFE2FFE7500E6EAFEF0FF0000E45
:101EB8000C6EAFEF0FF0030E0401326166EF0FF006
:101EC80068EF0FF08DEF0FF03251020DCD0EF324B5
:101ED800F66E7E0EF420F76E0900F5CF09F00A00C1
:101EE800F5CF0AF009C0F6FF0AC0F7FFF86A070E37
:101EF800F76403D00800F55005D0F6CFE1FFF7CF1F
:101F0800E2FFE7500001606F60510D6E0E6AAFEF9F
:101F18000FF0000E0C6EAFEF0FF0000E0C6EAFEF6F
:101F28000FF033510001606F616B6151000AD8B442
:101F3800A0EF0FF091EF0FF06051010AD8B408EF4D
:101F48000FF0030AD8B412EF0FF0010AD8B45FEF0C
:101F58000FF091EF0FF01200000E0001716F67BFD4
:101F6800BAEF0FF0B8EF0FF0CCEF0FF0671F661F56
:101F7800651F641F631F621F611F606D000E612370
:101F8800622363236423652366236723010E716F2D
:101F98006FBFD3EF0FF0D1EF0FF0E3EF0FF06F1F2C
:101FA8006E1F6D1F6C1F6B1F6A1F691F686D000E07
:101FB80069236A236B236C236D236E236F23685177
:101FC80069116A116B116C116D116E116F11D8B412
:101FD800F0EF0FF0F2EF0FF03AEF10F0010E706F24
:101FE80000EF10F0D890683769376A376B376C376D
:101FF8006D376E376F37702B6FAF05EF10F007EF47
:1020080010F0F6EF0FF06851605D695161596A513F
:1020180062596B5163596C5164596D5165596E51D0
:1020280066596F516759D8A01CEF10F01EEF10F0D9
:102038002EEF10F06851605F6951615B6A51625B15
:102048006B51635B6C51645B6D51655B6E51665B94
:102058006F51675BD8906F336E336D336C336B336E
:102068006A3369336833702F07EF10F07151D8B4B1
:1020780040EF10F042EF10F052EF10F0671F661FAC
:10208800651F641F631F621F611F606D000E61235F
:1020980062236323642365236623672360C060F09B
:1020A80061C061F062C062F063C063F064C064F054
:1020B80065C065F066C066F067C067F01200010E83
:1020C8000001E46FD70ED26F7F0ED36F8EEC27F02E
:1020D8000BEF11F0D8C060F0D9C061F09DEC25F08D
:1020E8000001615109E10B0E605DD8A07EEF10F090
:1020F80080EF10F088EF10F07C0ED26F7F0ED36F58
:102108008EEC27F014EF11F0E4511A0D440EF3246D
:10211800D96E010EF420DA6EDE04DE10D8B497EF23
:1021280010F099EF10F00AEF11F0C00ED26F7F0E89
:10213800D36FE4C0D4F0D56B8EEC27F00001E451E6
:10214800E26FE36BE4511A0D380EF324D96E010ED9
:10215800F420DA6EE2C0DEFFE3C0DDFFE4511A0DC1
:10216800480EF324606F010EF420616FD8C062F04E
:10217800D9C063F05BEC26F00001E4511A0D3A0E69
:10218800F324D96E010EF420DA6EDAC0DEFFDBC06C
:10219800DDFFE4511A0D3C0EF324D96E010EF42034
:1021A800DA6EDCC0DEFFDDC0DEFFDEC0DEFFDFC0D2
:1021B800DEFF79EC27F00001E4511A0D400EF324FC
:1021C800D96E010EF420DA6E60C0DEFF61C0DEFF5A
:1021D80062C0DEFF63C0DEFFE4511A0D460EF32431
:1021E800D96E010EF420DA6EE0C0DEFFE1C0DDFF3B
:1021F800E4511A0D440EF324D96E010EF420DA6E60
:10220800010EDE6E000EDD6E14EF11F0E42B040EED
:102218000001E46512EF11F014EF11F06EEF10F009
:102228001200800E04013019D8A41DEF11F01FEF21
:1022380011F0C4EF11F0C00E0C6EABEF11F0660E8A
:10224800096E7F0E0A6E000E0E6E120E0D6EC4EF32
:1022580011F03251D8A433EF11F035EF11F073EFCC
:1022680011F03251020DD30EF324F66E7E0EF420D7
:10227800F76E0900F5CF09F00A00F5CF0AF0020E53
:1022880009242E6E000E0A202F6E2EC0F6FF2FC0D6
:10229800F7FFF86A070EF76403D00800F55005D079
:1022A800F6CFE1FFF7CFE2FFE7500D6E030E0924EA
:1022B8002E6E000E0A202F6E2EC0F6FF2FC0F7FFDD
:1022C800F86A070EF76403D00800F55005D0F6CF7A
:1022D800E1FFF7CFE2FFE7500E6EC4EF11F0000EFA
:1022E8000C6EC4EF11F0030E32617DEF11F07FEF39
:1022F80011F0A3EF11F03251020DCD0EF324F66E5A
:102308007E0EF420F76E0900F5CF09F00A00F5CF2C
:102318000AF009C0F6FF0AC0F7FFF86A070EF7646B
:1023280003D00800F55005D0F6CFE1FFF7CFE2FF64
:10233800E7502E6E2E500D6E0E6AC4EF11F0000E8F
:102348000C6EC4EF11F0000E0C6EC4EF11F0335197
:102358002E6E2F6A2F50000AD8B4B5EF11F0A7EFF0
:1023680011F02E50010AD8B423EF11F0030AD8B4A3
:102378002DEF11F0010AD8B477EF11F0A7EF11F0A3
:102388001200A394000E676E000E656E000E6A6E52
:102398006B0E0001606F0F0E616F000E636F000E11
:1023A800626F000E656F020E646F83EC0DF0160EFF
:1023B800626E9F0E666E7B0E646E000E00016C6F7F
:1023C8006C51040D000EF324D96E040EF420DA6E5D
:1023D800DE6ADE6ADE6ADD6A6C2B0B0E6C65F7EF6F
:1023E80011F0F9EF11F0E4EF11F0608C000E636E5C
:1023F8006098609C6596000E0C6E000E046E000ED0
:10240800066E000E056E65B60CEF12F00EEF12F0B8
:10241800FEEF11F0010E266E010E256E000E246EE1
:10242800000E236E000E296E000E00016C6F6C51B9
:10243800020D0F0EF324D96E000EF420DA6E000E92
:10244800DE6E000EDD6E6C51020D0A0EF324D96E9D
:10245800010EF420DA6E000EDE6E000EDD6E180E30
:102468006C25D96EDA6A000EDA22000EDF6E150EC0
:102478006C25D96EDA6A000EDA22000EDF6E6C2B3C
:10248800020E6C654AEF12F04CEF12F01BEF12F0DF
:10249800080E0F6E040E106E160E6A6E040E0401FE
:1024A800036F300E026F080E016F040E006F008F6D
:1024B800000E0001FE6F000E0101146F000E156F73
:1024C800000E166F000E176F000E226E000E356F8D
:1024D8001200A394000E676E000E656E000E6A6E01
:1024E8006B0E2E6E0F0E2F6E000E316E000E306EBC
:1024F800000E336E020E326E3FEC0EF0160E626E58
:102508009F0E666E7B0E646E000E3A6E3A50040D96
:10251800000EF324D96E040EF420DA6EDE6ADE6A49
:10252800DE6ADD6A3A2A0B0E3A649DEF12F09FEFDD
:1025380012F08AEF12F0608C000E636E6098609C57
:102548006596000E0C6E000E046E000E066E000EF0
:10255800056E65B6B2EF12F0B4EF12F0A4EF12F008
:10256800010E266E010E256E000E246E000E236EDF
:10257800000E296E000E3A6E3A50020D0F0EF3242B
:10258800D96E000EF420DA6E000EDE6E000EDD6EDF
:102598003A50020D0A0EF324D96E010EF420DA6EB9
:1025A800000EDE6E000EDD6E180E3A24D96EDA6A61
:1025B800000EDA22000EDF6E150E3A24D96EDA6AA2
:1025C800000EDA22000EDF6E3A2A020E3A64EFEFAE
:1025D80012F0F1EF12F0C0EF12F0080E0F6E040EB9
:1025E800106E160E6A6E040E0401036F300E026F31
:1025F800080E016F040E006F008F000E0001FE6FC1
:10260800000E0101146F000E156F000E166F000EFC
:10261800176F000E226E000E356F120020EE01F0CB
:102628001F50D9262050DA22DF500001616F615116
:10263800055C000E0658D8B024EF13F026EF13F00F
:1026480028EF13F005C061F06151055E000E065ACF
:10265800000E606F3FEF13F0380E6025D96EDA6A0E
:10266800040EDA2201C0E1FF02C0E2FFDFCFE7FF7C
:10267800014A022A602B6151605DD8A046EF13F031
:1026880048EF13F030EF13F005500610D8B44FEFB1
:1026980013F051EF13F08AEF13F020EE01F01D5004
:1026A800D9261E50DA22080EDF6E20EE02F01D50E9
:1026B800D9261E50DA22380EDE6E040EDD6E1FC0DB
:1026C800D9FF20C0DAFFDFBC6CEF13F06EEF13F018
:1026D8007CEF13F01DC0D9FF1EC0DAFF480EDF6E75
:1026E8001DC0D9FF1EC0DAFF000EDB8EB3EF13F05A
:1026F8001DC0D9FF1EC0DAFF080EDF6E1DC0D9FF4E
:102708001EC0DAFF000EDB8EB3EF13F020EE01F0EF
:102718001D50D9261E50DA22080EDF6E20EE02F078
:102728001D50D9261E50DA22300EDE6E040EDD6EE4
:102738001DC0D9FF1EC0DAFF040EDF6E1DC0D9FF11
:102748001EC0DAFF000EDB8E049E2750D8A4AFEF20
:1027580013F0B1EF13F0B3EF13F00FEC1DF012000C
:102768000001686F00016051D8B4BDEF13F0BFEFEE
:1027780013F0CDEF13F06851020D0F0EF324D96E4C
:10278800000EF420DA6EDECF69F0DDCF6AF0D9EF03
:1027980013F06851020D0A0EF324D96E010EF420CD
:1027A800DA6EDECF69F0DDCF6AF069516A11D8A41C
:1027B800E0EF13F0E2EF13F0E8EF13F0000E606FB4
:1027C800000E616F54EF14F020EE02F06951D92623
:1027D8006A51DA2261C0DEFF62C0DDFF20EE01F03F
:1027E8006951D9266A51DA2263C0DFFF69C0D9FF6F
:1027F8006AC0DAFF400EDF1669C0D9FF6AC0DAFF87
:10280800000EDB8669C0D9FF6AC0DAFF000EDB8ED6
:102818006051D8B412EF14F014EF14F033EF14F041
:102828006851020D0F0EF324D96E000EF420DA6EF3
:10283800DECF64F0DDCF65F0040E6419666F655174
:10284800676F6851020D0F0EF324D96E000EF42045
:10285800DA6E66C0DEFF67C0DDFF50EF14F0685126
:10286800020D0A0EF324D96E010EF420DA6EDECFC3
:1028780064F0DDCF65F0040E6419666F6551676F0B
:102888006851020D0A0EF324D96E010EF420DA6E97
:1028980066C0DEFF67C0DDFF69C060F06AC061F036
:1028A800120020EE01F01F50D9262050DA22DF5006
:1028B8002F6E2F50055C000E0658D8B066EF14F046
:1028C80068EF14F06AEF14F005C02FF02F50055E82
:1028D800000E065A000E2E6E81EF14F0380E2E24CC
:1028E800D96EDA6A040EDA2201C0E1FF02C0E2FF03
:1028F800DFCFE7FF014A022A2E2A2F502E5CD8A0EC
:1029080088EF14F08AEF14F072EF14F005500610F7
:10291800D8B491EF14F093EF14F0CCEF14F020EE4C
:1029280001F01D50D9261E50DA22080EDF6E20EE67
:1029380002F01D50D9261E50DA22380EDE6E040E23
:10294800DD6E1FC0D9FF20C0DAFFDFBCAEEF14F088
:10295800B0EF14F0BEEF14F01DC0D9FF1EC0DAFFAF
:10296800480EDF6E1DC0D9FF1EC0DAFF000EDB8ED9
:10297800F5EF14F01DC0D9FF1EC0DAFF080EDF6E98
:102988001DC0D9FF1EC0DAFF000EDB8EF5EF14F074
:1029980020EE01F01D50D9261E50DA22080EDF6EF7
:1029A80020EE02F01D50D9261E50DA22300EDE6EBF
:1029B800040EDD6E1DC0D9FF1EC0DAFF040EDF6EE7
:1029C8001DC0D9FF1EC0DAFF000EDB8E049E275003
:1029D800D8A4F1EF14F0F3EF14F0F5EF14F087EC4E
:1029E8001DF0120060980CBEFCEF14F0FEEF14F01E
:1029F80043EF15F004AE03EF15F005EF15F017EFF0
:102A080015F0020E2B6E2350D8A40DEF15F00FEF22
:102A180015F011EF15F02BEC21F0000E256E000ECD
:102A2800266E95EF15F020EE01F01D50D9261E50A8
:102A3800DA22080EDF6E20EE02F01D50D9261E5055
:102A4800DA22300EDE6E040EDD6E1DC0D9FF1EC008
:102A5800DAFF0C0EDF6E1DC0D9FF1EC0DAFF000EB4
:102A6800DB8E0FC0D9FF10C0DAFF040EDF6E0FC077
:102A7800D9FF10C0DAFF000EDB8E95EF15F00401C8
:102A880030AF49EF15F04BEF15F067EF15F0010E79
:102A98002B6E2450D8A453EF15F055EF15F057EFCF
:102AA80015F02BEC21F0000E256E000E266E275037
:102AB800D8A461EF15F063EF15F095EF15F00FEC62
:102AC8001DF095EF15F0020E2B6E20EE01F01D5053
:102AD800D9261E50DA22080EDF6E20EE02F01D50B5
:102AE800D9261E50DA22300EDE6E040EDD6E1DC0B1
:102AF800D9FF1EC0DAFF040EDF6E1DC0D9FF1EC04D
:102B0800DAFF000EDB8E000E256E000E266E2750B3
:102B1800D8A491EF15F093EF15F095EF15F063EF4A
:102B280015F0120060980CBE9CEF15F09EEF15F0A2
:102B3800E3EF15F004AEA3EF15F0A5EF15F0B7EF2E
:102B480015F0020E2B6E2350D8A4ADEF15F0AFEFA1
:102B580015F0B1EF15F081EC21F0000E256E000E96
:102B6800266E35EF16F020EE01F01D50D9261E50C6
:102B7800DA22080EDF6E20EE02F01D50D9261E5014
:102B8800DA22300EDE6E040EDD6E1DC0D9FF1EC0C7
:102B9800DAFF0C0EDF6E1DC0D9FF1EC0DAFF000E73
:102BA800DB8E0FC0D9FF10C0DAFF040EDF6E0FC036
:102BB800D9FF10C0DAFF000EDB8E35EF16F00401E6
:102BC80030AFE9EF15F0EBEF15F007EF16F0010E57
:102BD8002B6E2450D8A4F3EF15F0F5EF15F0F7EFAE
:102BE80015F081EC21F0000E256E000E266E2750A0
:102BF800D8A401EF16F003EF16F035EF16F087ECC6
:102C08001DF035EF16F0020E2B6E20EE01F01D5070
:102C1800D9261E50DA22080EDF6E20EE02F01D5073
:102C2800D9261E50DA22300EDE6E040EDD6E1DC06F
:102C3800D9FF1EC0DAFF040EDF6E1DC0D9FF1EC00B
:102C4800DAFF000EDB8E000E256E000E266E275072
:102C5800D8A431EF16F033EF16F035EF16F003EF86
:102C680016F01200366E2E50D8B43DEF16F03FEF36
:102C780016F04DEF16F03650020D0F0EF324D96EF4
:102C8800000EF420DA6EDECF37F0DDCF38F059EFE2
:102C980016F03650020D0A0EF324D96E010EF420F8
:102CA800DA6EDECF37F0DDCF38F037503810D8A4E1
:102CB80060EF16F062EF16F068EF16F0000E2E6E59
:102CC800000E2F6ED4EF16F020EE02F03750D92602
:102CD8003850DA222FC0DEFF30C0DDFF20EE01F0D1
:102CE8003750D9263850DA2231C0DFFF37C0D9FF34
:102CF80038C0DAFF400EDF1637C0D9FF38C0DAFF18
:102D0800000EDB8637C0D9FF38C0DAFF000EDB8E35
:102D18002E50D8B492EF16F094EF16F0B3EF16F0E9
:102D28003650020D0F0EF324D96E000EF420DA6E21
:102D3800DECF32F0DDCF33F0040E3218346E33506C
:102D4800356E3650020D0F0EF324D96E000EF420A6
:102D5800DA6E34C0DEFF35C0DDFFD0EF16F0365036
:102D6800020D0A0EF324D96E010EF420DA6EDECFBE
:102D780032F0DDCF33F0040E3218346E3350356E36
:102D88003650020D0A0EF324D96E010EF420DA6EC5
:102D980034C0DEFF35C0DDFF37C02EF038C02FF05D
:102DA800120004013039E832030B0009D8B4DFEF10
:102DB80016F0E1EF16F02CEF17F066EF17F00C8E17
:102DC800080E0101356F66EF17F0FAEC0EF066EFAA
:102DD80017F01DEC1CF066EF17F0FE0E096E000EE2
:102DE8000A6E0C80010E0D6E0C8E66EF17F006EC65
:102DF80019F066EF17F04AEC02F066EF17F0FB0ED9
:102E080004013425096E0A6A000E0A220C80010E9C
:102E18000D6E0C8E66EF17F00C8EFB0E0401342538
:102E2800D96EDA6A000EDA2232C4DFFF66EF17F0D5
:102E3800000E6D6F020E6C6F000E6E6F000E6F6FDE
:102E4800000E716F000E706FBCEC22F066EF17F089
:102E5800315100017B6F7C6B7C51000AD8B437EF8D
:102E680017F066EF17F07B51000AD8B4FBEF16F0A5
:102E7800010AD8B4FFEF16F0020AD8B4FFEF16F033
:102E8800060AD8B4E3EF16F0030AD8B4E9EF16F04F
:102E9800010AD8B41CEF17F00F0AD8B4F1EF16F0F6
:102EA800010AD8B4EDEF16F0030AD8B403EF17F00F
:102EB800010AD8B410EF17F0070AD8B466EF17F074
:102EC80066EF17F0120004013039E832030B0009ED
:102ED800D8B471EF17F073EF17F0BCEF17F0F5EFF8
:102EE80017F00C8E080E0101356FF5EF17F015EC91
:102EF80011F0F5EF17F0FFEC1DF0F5EF17F0FE0EEF
:102F0800096E000E0A6E0C80010E0D6E0C8EF5EF28
:102F180017F01BEC1BF0F5EF17F006EC04F0F5EFDB
:102F280017F0FB0E3425096E0A6A000E0A220C807F
:102F3800010E0D6E0C8EF5EF17F00C8EFB0E34257E
:102F4800D96EDA6A000EDA2232C4DFFFF5EF17F025
:102F5800000E3B6E020E3A6E000E3C6E000E3D6E89
:102F6800000E3F6E000E3E6E01EC23F0F5EF17F0F9
:102F78003151496E4A6A4A50000AD8B4C6EF17F070
:102F8800F5EF17F04950000AD8B48DEF17F0010A91
:102F9800D8B491EF17F0020AD8B491EF17F0060AE7
:102FA800D8B475EF17F0030AD8B47BEF17F0010A0D
:102FB800D8B4ACEF17F00F0AD8B483EF17F0010AB2
:102FC800D8B47FEF17F0030AD8B495EF17F0010AC9
:102FD800D8B4A1EF17F0070AD8B4F5EF17F0F5EF5A
:102FE80017F01200080E0001606F0E5007E1080E7E
:102FF8000D5CD8B002EF18F004EF18F01CEF18F0D1
:103008000DC060F02C50D8A40CEF18F00EEF18F09B
:1030180012EF18F0010E2C6E1CEF18F02C04D8A437
:1030280018EF18F01AEF18F01CEF18F0020E2C6EBB
:1030380060510D5E000E0E5A20EE01F00F50D92699
:103048001050DA2260C0DFFF380EF46F040EF56FFF
:103058000CB031EF18F033EF18F075EF18F050EFAF
:1030680018F009C0F6FF0AC0F7FFF86AF4C0D9FFE4
:10307800F5C0DAFF070EF76403D00800F55005D055
:10308800F6CFE1FFF7CFE2FFE750DF6E094A0A2AE1
:103098000001F44BF52B60076051D8A456EF18F0E7
:1030A80058EF18F035EF18F07DEF18F009C0F6FF6B
:1030B8000AC0F7FFF86AF4C0D9FFF5C0DAFF070EB7
:1030C800F76403D00800F55005D0F6CFE1FFF7CF3D
:1030D800E2FFE750DF6E094A0A2A0001F44BF52B9C
:1030E80060076051D8A47BEF18F07DEF18F05AEF15
:1030F80018F01200080E2E6E0E5007E1080E0D5C37
:10310800D8B089EF18F08BEF18F0A3EF18F00DC0C6
:103118002EF02C50D8A493EF18F095EF18F099EFF3
:1031280018F0010E2C6EA3EF18F02C04D8A49FEF12
:1031380018F0A1EF18F0A3EF18F0020E2C6E2E5025
:103148000D5E000E0E5A20EE01F00F50D9261050D9
:10315800DA222EC0DFFF380E0001F46F040EF56F7F
:103168000CB0B9EF18F0BBEF18F0FDEF18F0D8EF7E
:1031780018F009C0F6FF0AC0F7FFF86AF4C0D9FFD3
:10318800F5C0DAFF070EF76403D00800F55005D044
:10319800F6CFE1FFF7CFE2FFE750DF6E094A0A2AD0
:1031A8000001F44BF52B2E062E50D8A4DEEF18F0B4
:1031B800E0EF18F0BDEF18F005EF19F009C0F6FFC1
:1031C8000AC0F7FFF86AF4C0D9FFF5C0DAFF070EA6
:1031D800F76403D00800F55005D0F6CFE1FFF7CF2C
:1031E800E2FFE750DF6E094A0A2A0001F44BF52B8B
:1031F8002E062E50D8A403EF19F005EF19F0E2EFD0
:1032080018F01200000E0401386F000E396F63EFDA
:1032180019F00C8E2A04D8A414EF19F016EF19F03F
:103228007EEF19F0040138837EEF19F00C8E7EEFE3
:1032380019F00C8E040134BF24EF19F026EF19F0B1
:1032480038EF19F034510F0B0001606F6051020D17
:103258000A0EF324D96E010EF420DA6EDECF62F086
:10326800DDCF63F048EF19F034510F0B0001606FA8
:103278006051020D0F0EF324D96E000EF420DA6EA1
:10328800DECF62F0DDCF63F062C0D9FF63C0DAFF42
:10329800DFAE51EF19F053EF19F07EEF19F062C06D
:1032A800D9FF63C0DAFFDFA45CEF19F05EEF19F015
:1032B8007EEF19F0010E0401386F7EEF19F03051DE
:1032C8001F0B0001606F616B6151000AD8B46FEF8A
:1032D80019F07EEF19F06051000AD8B40DEF19F01B
:1032E800010AD8B41AEF19F0030AD8B41DEF19F07F
:1032F8007EEF19F00CAE83EF19F085EF19F08CEF23
:1033080019F0380E096E040E0A6E0C80020E0D6E4E
:1033180012000FC0D9FF10C0DAFF000EDFBC010E8B
:103328000001616F040E0F180F6E1050106E080E1A
:1033380001013519D8A4A3EF19F0A5EF19F0B9EFD9
:1033480019F0040132517F0B636E6350D8B4AFEFAC
:1033580019F0B1EF19F0B6EF19F0100E0101356F41
:10336800B9EF19F0040E0101356F2B04D8A4BFEF93
:1033780019F0C1EF19F009EF1AF020EE02F00F5022
:10338800D9261050DA22380EDE6E040EDD6EF6EC09
:1033980017F0020E2C18D8A4D4EF19F0D6EF19F0B4
:1033A800E4EF19F00FC0D9FF10C0DAFF040EDF6E8A
:1033B8000FC0D9FF10C0DAFF000EDB8E13EF1AF032
:1033C80000016151D8A4EBEF19F0EDEF19F0FBEF14
:1033D80019F00FC0D9FF10C0DAFF480EDF6E0FC01A
:1033E800D9FF10C0DAFF000EDB8E13EF1AF00FC002
:1033F800D9FF10C0DAFF080EDF6E0FC0D9FF10C06A
:10340800DAFF000EDB8E13EF1AF004AE0EEF1AF09F
:1034180010EF1AF011EF1AF0049E000E2B6E120036
:103428000FC0D9FF10C0DAFF000EDFBC010E2F6EEF
:10343800040E0F180F6E1050106E080E010135198A
:10344800D8A429EF1AF02BEF1AF03FEF1AF0040175
:1034580032517F0B636E6350D8B435EF1AF037EFF3
:103468001AF03CEF1AF0100E0101356F3FEF1AF019
:10347800040E0101356F2B04D8A445EF1AF047EF6D
:103488001AF08EEF1AF020EE02F00F50D9261050E5
:10349800DA22380EDE6E040EDD6E7EEC18F0020EB7
:1034A8002C18D8A45AEF1AF05CEF1AF06AEF1AF049
:1034B8000FC0D9FF10C0DAFF040EDF6E0FC0D9FFAE
:1034C80010C0DAFF000EDB8E98EF1AF02F50D8A448
:1034D80070EF1AF072EF1AF080EF1AF00FC0D9FFF0
:1034E80010C0DAFF480EDF6E0FC0D9FF10C0DAFF38
:1034F800000EDB8E98EF1AF00FC0D9FF10C0DAFF6C
:10350800080EDF6E0FC0D9FF10C0DAFF000EDB8E89
:1035180098EF1AF004AE93EF1AF095EF1AF096EFC1
:103528001AF0049E000E2B6E1200040130511F0B7E
:10353800E806D8B4A2EF1AF0A4EF1AF0A6EF1AF032
:103548001AEF1BF03039E832030BE806D8B4AFEFB6
:103558001AF0B1EF1AF0B3EF1AF01AEF1BF034516A
:10356800D8B4B9EF1AF0BBEF1AF0F8EF1AF0340537
:10357800D8B4C1EF1AF0C3EF1AF0F8EF1AF01AEF47
:103588001BF0C00E096E010E0A6E000E0E6E080EBC
:103598000D6E0C800C8E1AEF1BF0C00E096E010E1A
:1035A8000A6E0C8E1AEF1BF036C405F037C406F00D
:1035B800C80E016E010E026E000E076E000E086E38
:1035C800048E1AEF1BF0C80E096E010E0A6E000E6B
:1035D8000E6E070E0D6EC10E0C6E1AEF1BF032C484
:1035E80032F10C8E1AEF1BF031510001606F616BE4
:1035F8006151000AD8B403EF1BF01AEF1BF06051B9
:10360800000AD8B4C5EF1AF0010AD8B4D1EF1AF0FD
:10361800210AD8B4D8EF1AF0010AD8B4E7EF1AF0A3
:10362800030AD8B4F3EF1AF01AEF1BF01200000ED9
:103638000401386F000E396F73EF1BF00C8E2A04EB
:10364800D8A429EF1BF02BEF1BF08DEF1BF038836C
:103658008DEF1BF00C8E8DEF1BF00C8E34BF37EF07
:103668001BF039EF1BF04AEF1BF034510F0B2E6E95
:103678002E50020D0A0EF324D96E010EF420DA6ED4
:10368800DECF30F0DDCF31F059EF1BF034510F0BA6
:103698002E6E2E50020D0F0EF324D96E000EF4205C
:1036A800DA6EDECF30F0DDCF31F030C0D9FF31C077
:1036B800DAFFDFAE62EF1BF064EF1BF08DEF1BF05B
:1036C80030C0D9FF31C0DAFFDFA46DEF1BF06FEF18
:1036D8001BF08DEF1BF0010E386F8DEF1BF0305192
:1036E8001F0B2E6E2F6A2F50000AD8B47EEF1BF0E6
:1036F8008DEF1BF02E50000AD8B422EF1BF0010A00
:10370800D8B42EEF1BF0030AD8B431EF1BF08DEFBD
:103718001BF00CAE92EF1BF094EF1BF09BEF1BF02D
:10372800380E096E040E0A6E0C80020E0D6E120021
:10373800040130511F0BE806D8B4A5EF1BF0A7EF22
:103748001BF0A9EF1BF01CEF1CF03039E832030B1B
:10375800E806D8B4B2EF1BF0B4EF1BF0B6EF1BF0DD
:103768001CEF1CF03451D8B4BCEF1BF0BEEF1BF0BB
:10377800FBEF1BF03405D8B4C4EF1BF0C6EF1BF009
:10378800FBEF1BF01CEF1CF0C00E096E010E0A6E59
:10379800000E0E6E080E0D6E0C800C8E1CEF1CF0C9
:1037A800C00E096E010E0A6E0C8E1CEF1CF036C49A
:1037B80005F037C406F0C80E016E010E026E000E49
:1037C800076E000E086E048E1CEF1CF0C80E096E02
:1037D800010E0A6E000E0E6E070E0D6EC10E0C6EF7
:1037E8001CEF1CF032C432F10C8E1CEF1CF031516E
:1037F8002E6E2F6A2F50000AD8B405EF1CF01CEF6C
:103808001CF02E50000AD8B4C8EF1BF0010AD8B437
:10381800D4EF1BF0210AD8B4DBEF1BF0010AD8B4AF
:10382800EAEF1BF0030AD8B4F6EF1BF01CEF1CF00C
:1038380012000C8E6B0E0001606F0F0E616F000E90
:10384800636F000E626F000E656F020E646F83EC8B
:103858000DF0000E0001606F040E616F000E636FC3
:10386800000E626F000E656F300E646F83EC0DF012
:10387800608C000E0001746F180E7425D96EDA6A18
:10388800000EDA22000EDF6E150E7425D96EDA6A84
:10389800000EDA22000EDF6E742B020E746557EFED
:1038A8001CF059EF1CF040EF1CF0FB0E606F000E8F
:1038B800616F000E636F000E626F000E656F020E7F
:1038C800646F83EC0DF0609C080E0F6E040E106E92
:1038D800000E1F6E040E206E1FC01DF020C01EF0CB
:1038E80032C4FEF00001FE51D8A47DEF1CF07FEF3A
:1038F8001CF084EF1CF0100E0101356F95EF1CF0E1
:10390800000E6D6F010E6C6FFE0E6E6F000E6F6F06
:10391800000E716F010E706FBCEC22F0200E0101D9
:10392800356F120020EE70F0070EDE6AE806FDE241
:103938000001685169116A116B116C116D116E11DA
:103948006F11D8B4AAEF1CF0ACEF1CF0FEEF1CF01E
:10395800010E786FBAEF1CF0D890683769376A376C
:103968006B376C376D376E376F37782B6FAFBFEFAC
:103978001CF0C1EF1CF0B0EF1CF0D8907037713715
:103988007237733774377537763777376851605DB4
:10399800695161596A5162596B5163596C51645943
:1039A8006D5165596E5166596F516759D8A0DFEF4F
:1039B8001CF0E1EF1CF0F2EF1CF06851605F6951F8
:1039C800615B6A51625B6B51635B6C51645B6D5107
:1039D800655B6E51665B6F51675B7081D8906F3322
:1039E8006E336D336C336B336A3369336833782FD6
:1039F800C1EF1CF070C060F071C061F072C062F07D
:103A080073C063F074C064F075C065F076C066F08A
:103A180077C067F012002650D8A415EF1DF017EFF5
:103A28001DF086EF1DF0010E266E2550D8A41FEF5D
:103A38001DF021EF1DF086EF1DF0010E256E020E20
:103A48002B18D8A42AEF1DF02CEF1DF042EF1DF023
:103A580020EE01F00F50D9261050DA22000EDF6E4A
:103A68000FC0D9FF10C0DAFF480EDF6E0FC0D9FFB4
:103A780010C0DAFF000EDB8E86EF1DF02B04D8A4F1
:103A880048EF1DF04AEF1DF086EF1DF0000E286E7E
:103A980020EE01F01F50D9262050DA22080EDF6EE2
:103AA80020EE02F01F50D9262050DA22300EDE6EAA
:103AB800040EDD6E1FC0D9FF20C0DAFF040EDF6ED2
:103AC8001FC0D9FF20C0DAFF000EDB8E010E286E62
:103AD80020EE01F01D50D9261E50DA22080EDF6EA6
:103AE80020EE02F01D50D9261E50DA22300EDE6E6E
:103AF800040EDD6E1DC0D9FF1EC0DAFF800EDF6E1A
:103B080086EF1DF012002650D8A48DEF1DF08FEF20
:103B18001DF0FEEF1DF0010E266E2550D8A497EF7C
:103B28001DF099EF1DF0FEEF1DF0010E256E020E3F
:103B38002B18D8A4A2EF1DF0A4EF1DF0BAEF1DF0CA
:103B480020EE01F00F50D9261050DA22000EDF6E59
:103B58000FC0D9FF10C0DAFF480EDF6E0FC0D9FFC3
:103B680010C0DAFF000EDB8EFEEF1DF02B04D8A488
:103B7800C0EF1DF0C2EF1DF0FEEF1DF0000E286E25
:103B880020EE01F01F50D9262050DA22080EDF6EF1
:103B980020EE02F01F50D9262050DA22300EDE6EB9
:103BA800040EDD6E1FC0D9FF20C0DAFF040EDF6EE1
:103BB8001FC0D9FF20C0DAFF000EDB8E010E286E71
:103BC80020EE01F01D50D9261E50DA22080EDF6EB5
:103BD80020EE02F01D50D9261E50DA22300EDE6E7D
:103BE800040EDD6E1DC0D9FF1EC0DAFF800EDF6E29
:103BF800FEEF1DF012000C8E6B0E2E6E0F0E2F6E48
:103C0800000E316E000E306E000E336E020E326EF4
:103C18003FEC0EF0000E2E6E040E2F6E000E316E6D
:103C2800000E306E000E336E300E326E3FEC0EF02A
:103C3800608C000E426E180E4224D96EDA6A000EAD
:103C4800DA22000EDF6E150E4224D96EDA6A000EF3
:103C5800DA22000EDF6E422A020E426436EF1EF0B0
:103C680038EF1EF01FEF1EF0FB0E2E6E000E2F6EAB
:103C7800000E316E000E306E000E336E020E326E84
:103C88003FEC0EF0609C080E0F6E040E106E000ED6
:103C98001F6E040E206E1FC01DF020C01EF032C41F
:103CA800FEF00001FE51D8A45CEF1EF05EEF1EF09E
:103CB80063EF1EF0100E0101356F74EF1EF0000E59
:103CC8003B6E010E3A6EFE0E3C6E000E3D6E000E0F
:103CD8003F6E010E3E6E01EC23F0200E0101356FA0
:103CE800120060C067F061C068F062C069F063C02C
:103CF8006AF000016407D8A06507642906E1652910
:103D0800D8A489EF1EF08BEF1EF098EF1EF0000E7E
:103D1800616F000E606FE4EF1EF0674B682B694B14
:103D28006A2B6407D8A0650767C0F6FF68C0F7FF6D
:103D38000800F5500009D8B4A4EF1EF0A6EF1EF055
:103D4800D2EF1EF069C0F6FF6AC0F7FF0800F55011
:103D58000009D8B4B2EF1EF0B4EF1EF0D2EF1EF097
:103D680064516511D8B4BBEF1EF0BDEF1EF0D2EF61
:103D78001EF067C0F6FF68C0F7FF0800F5CF66F0D1
:103D880069C0F6FF6AC0F7FF0800F5506619D8B495
:103D9800D0EF1EF0D2EF1EF091EF1EF067C0F6FFD5
:103DA80068C0F7FF0800F5CF66F069C0F6FF6AC083
:103DB800F7FF0800F550665D606F616BD8A061077A
:103DC80012000001685169116A116B116C116D11B3
:103DD8006E116F11D8B4F3EF1EF0F5EF1EF03DEF42
:103DE8001FF0010E706F03EF1FF0D8906837693726
:103DF8006A376B376C376D376E376F37702B6FAF2D
:103E080008EF1FF00AEF1FF0F9EF1EF06851605D30
:103E1800695161596A5162596B5163596C516459BE
:103E28006D5165596E5166596F516759D8A01FEF8A
:103E38001FF021EF1FF031EF1FF06851605F6951EB
:103E4800615B6A51625B6B51635B6C51645B6D5182
:103E5800655B6E51665B6F51675BD8906F336E33ED
:103E68006D336C336B336A3369336833702F0AEF01
:103E78001FF060C060F061C061F062C062F063C0B2
:103E880063F064C064F065C065F066C066F067C042
:103E980067F01200000169516A11D8B456EF1FF09B
:103EA80058EF1FF061EF1FF069516A11D8A45FEF56
:103EB8001FF061EF1FF066EF1FF06751B6EC27F0B7
:103EC800B3EF1FF020EE04F06951D9266A51DA22C7
:103ED800DE50DE10D8B473EF1FF075EF1FF090EFCF
:103EE8001FF020EE04F06951D9266A51DA2210EE4B
:103EF80002F06951E1266A51E222DE50E65CE650A2
:103F0800800A6F6FDE50800A6F59D8B08EEF1FF0AD
:103F180090EF1FF0B3EF1FF020EE02F06951D926A1
:103F28006A51DA22DECF6BF0DDCF6CF069C0D9FFC1
:103F38006AC0DAFFDECF6DF0DDCF6EF06B516D2514
:103F4800D96E6C516E21DA6E67C0DFFF20EE02F089
:103F58006951D9266A51DA22DE2A000EDD221200C2
:103F68000001F0A1BAEF1FF0BCEF1FF0C6EF1FF081
:103F780079C070F07AC071F077C072F078C073F0D1
:103F880014EC26F000017CBFCCEF1FF0CEEF1FF041
:103F9800D4EF1FF07BC080F07CC081F0D8EF1FF019
:103FA800000E816F000E806F000E7F6F000E7E6F17
:103FB800EBEF1FF0000E686F200E676F77C069F097
:103FC80078C06AF04EEC1FF000017E4B7F2B8051C9
:103FD8007E5D7F51800A7D6F8151800A7D59D8A00E
:103FE800F8EF1FF0FAEF1FF0DEEF1FF0F0B1FFEF70
:103FF8001FF001EF20F00BEF20F079C070F07AC0CD
:1040080071F077C072F078C073F014EC26F079C0C4
:1040180060F07AC061F09DEC25F0000180516025C8
:10402800776F81516121786F12002D0E0001F86FB2
:10403800FDC07DF0FD0E7D17D8A425EF20F027EFF9
:1040480020F069EF20F0FDC07DF0D8907D333F0E61
:104058007D177D51040D000EF3241F6E040EF4200D
:10406800206E1FC01DF020C01EF0040E1D181D6E0E
:104078001E501E6E1FC0D9FF20C0DAFFDF30E832A5
:104088000F0B0D0AD8A44BEF20F04DEF20F065EF91
:1040980020F0300E606F040E616F20EE02F01F50AA
:1040A800D9262050DA22DECF62F0DDCF63F0000E91
:1040B800656F080E646F4BEC25F02DEC22F075EF60
:1040C80020F045EC23F075EF20F0FD51FD0B040ABC
:1040D800D8A471EF20F073EF20F075EF20F08DEC8D
:1040E80019F012002D0E0001F86FFDC04BF0FD0E07
:1040F8004B16D8A482EF20F084EF20F0C6EF20F012
:10410800FDC04BF0D8904B323F0E4B164B50040D70
:10411800000EF3241F6E040EF420206E1FC01DF045
:1041280020C01EF0040E1D181D6E1E501E6E1FC0EE
:10413800D9FF20C0DAFFDF30E8320F0B0D0AD8A410
:10414800A8EF20F0AAEF20F0C2EF20F0300E2E6E7C
:10415800040E2F6E20EE02F01F50D9262050DA22CE
:10416800DECF30F0DDCF31F0000E336E080E326E48
:10417800C6EC25F075EC22F0D2EF20F07FEC23F0AE
:10418800D2EF20F0FD51FD0B040AD8A4CEEF20F0A9
:10419800D0EF20F0D2EF20F014EC1AF0120000015A
:1041A800656F000E0001666F040E676F6051616FE6
:1041B800626BD890613762376551636F646BD890D2
:1041C80063376437D8906337643761516327625126
:1041D8006423D89063376437D89063376437635162
:1041E80066276451672366C0D9FF67C0DAFFDF9E80
:1041F8006051D8A402EF21F004EF21F012EF21F072
:104208006551020D0A0EF324D96E010EF420DA6E00
:1042180066C0DEFF67C0DDFF1EEF21F06551020DAD
:104228000F0EF324D96E000EF420DA6E66C0DEFF9E
:1042380067C0DDFF66C0D9FF67C0DAFFDF9C20EEEC
:1042480004F06651D9266751DA22DF8C1200000E7D
:10425800246E000E236E020E2B18D8A436EF21F020
:1042680038EF21F058EF21F020EE01F01D50D9264B
:104278001E50DA22080EDF6E20EE02F01D50D926FD
:104288001E50DA22380EDE6E040EDD6E1DC0D9FF18
:104298001EC0DAFF480EDF6E1DC0D9FF1EC0DAFF50
:1042A800000EDB8E80EF21F00D500401365D0E50BC
:1042B8003759D8B062EF21F064EF21F068EF21F0B0
:1042C80036C40DF037C40EF0F6EC17F020EE02F00D
:1042D8000F50D9261050DA22380EDE6E040EDD6E2D
:1042E8000FC0D9FF10C0DAFF480EDF6E0FC0D9FF2C
:1042F80010C0DAFF000EDB8E1200000E246E000ED6
:10430800236E020E2B18D8A48CEF21F08EEF21F02B
:10431800AEEF21F020EE01F01D50D9261E50DA2212
:10432800080EDF6E20EE02F01D50D9261E50DA224C
:10433800380EDE6E040EDD6E1DC0D9FF1EC0DAFF1A
:10434800480EDF6E1DC0D9FF1EC0DAFF000EDB8EDF
:10435800D6EF21F00D500401365D0E503759D8B014
:10436800B8EF21F0BAEF21F0BEEF21F036C40DF01E
:1043780037C40EF07EEC18F020EE02F00F50D9266C
:104388001050DA22380EDE6E040EDD6E0FC0D9FF33
:1043980010C0DAFF480EDF6E0FC0D9FF10C0DAFF79
:1043A800000EDB8E1200336E000E346E040E356E76
:1043B8002E502F6E306AD8902F3630363350316EEB
:1043C800326AD89031363236D890313632362F505C
:1043D800312630503222D89031363236D8903136A4
:1043E8003236315034263250352234C0D9FF35C0E8
:1043F800DAFFDF9E2E50D8A404EF22F006EF22F059
:1044080014EF22F03350020D0A0EF324D96E010E78
:10441800F420DA6E34C0DEFF35C0DDFF20EF22F075
:104428003350020D0F0EF324D96E000EF420DA6E0D
:1044380034C0DEFF35C0DDFF34C0D9FF35C0DAFF38
:10444800DF9C20EE04F03450D9263550DA22DF8C78
:104458001200000E2C6E000E276E000E246E000E49
:10446800236E000E286E000E2B6E0FC0D9FF10C0F1
:10447800DAFF7F0EDF16040E0F180F6E1050106E45
:104488000FC0D9FF10C0DAFF7F0EDF16040E0F1819
:104498000F6E1050106E1DC0D9FF1EC0DAFF7F0EC0
:1044A800DF16000E0C6E000E0E6E000E0D6E000E66
:1044B800046E000E066E000E056ED5EC16F0000EAA
:1044C80000016D6F030E6C6F000E6E6F000E6F6F44
:1044D800000E716F000E706FBCEC22F0F6EC14F059
:1044E8001200000E2C6E000E276E000E246E000EB9
:1044F800236E000E286E000E2B6E0FC0D9FF10C061
:10450800DAFF7F0EDF16040E0F180F6E1050106EB4
:104518000FC0D9FF10C0DAFF7F0EDF16040E0F1888
:104528000F6E1050106E1DC0D9FF1EC0DAFF7F0E2F
:10453800DF16000E0C6E000E0E6E000E0D6E000ED5
:10454800046E000E066E000E056E67EC17F0000E86
:104558003B6E030E3A6E000E3C6E000E3D6E000E72
:104568003F6E000E3E6E01EC23F096EC15F0120043
:10457800C6EF22F0F1EC23F000EF23F099EC1AF0EB
:1045880000EF23F06CC072F06DC073F0000173513E
:10459800000AD8B4D6EF22F07F0AD8B4F9EF22F097
:1045A80000EF23F07251010AD8B4BEEF22F0030ADB
:1045B800D8B400EF23F0010AD8B4C2EF22F0060AFB
:1045C800D8B400EF23F0770AD8B400EF23F0010A3B
:1045D800D8B400EF23F0070AD8B400EF23F0010A9B
:1045E800D8B400EF23F000EF23F07251FF0AD8B4DB
:1045F80000EF23F000EF23F012000BEF23F08FEC15
:1046080024F044EF23F09CEC1BF044EF23F03AC075
:1046180040F03BC041F04150000AD8B41AEF23F0F3
:104628007F0AD8B43DEF23F044EF23F04050010A4D
:10463800D8B403EF23F0030AD8B444EF23F0010AF7
:10464800D8B407EF23F0060AD8B444EF23F0770A6A
:10465800D8B444EF23F0010AD8B444EF23F0070A92
:10466800D8B444EF23F0010AD8B444EF23F044EF60
:1046780023F04050FF0AD8B444EF23F044EF23F06E
:104688001200020E2B18D8A44CEF23F04EEF23F0A3
:1046980052EF23F012EC13F07EEF23F0000E2B6E96
:1046A8002850D8A45AEF23F05CEF23F07CEF23F0D6
:1046B80020EE01F01D50D9261E50DA22080EDF6EBA
:1046C80020EE02F01D50D9261E50DA22300EDE6E82
:1046D800040EDD6E1DC0D9FF1EC0DAFF0C0EDF6EA2
:1046E8001DC0D9FF1EC0DAFF000EDB8E7EEF23F05F
:1046F800000E286E1200020E2B18D8A486EF23F0A5
:1047080088EF23F08CEF23F055EC14F0B8EF23F08A
:10471800000E2B6E2850D8A494EF23F096EF23F0C8
:10472800B6EF23F020EE01F01D50D9261E50DA22F4
:10473800080EDF6E20EE02F01D50D9261E50DA2238
:10474800300EDE6E040EDD6E1DC0D9FF1EC0DAFF0E
:104758000C0EDF6E1DC0D9FF1EC0DAFF000EDB8E07
:10476800B8EF23F0000E286E1200A3942D50D8B491
:10477800C0EF23F0C2EF23F0C5EF23F0A384F0EFDE
:1047880023F0000E0001646F60C062F061C063F046
:10479800642B6429D8A4D3EF23F0D5EF23F0D7EF07
:1047A80023F0E5EF23F062C0D9FF63C0DAFF624B64
:1047B800632BDF50D8A4E3EF23F0E5EF23F0CCEF31
:1047C80023F060C02BF161C02CF164C0F7F0010E3A
:1047D800F66F010E2D6EA3841200000E0101C86F42
:1047E8004B0EC96F000ECA6F000ECB6F000ECC6F58
:1047F800000ECD6F080ECE6F000E216E1A0E00014E
:10480800686F010E21EC25F01E0E0001686F020E84
:1048180021EC25F0000E0001606F400E616F050E5F
:10482800626F400E636F020EB4EC13F060C01BF0B1
:1048380061C01CF0000E0001F26F000EF36F000E55
:104848002D6E1200CCC0D0F0CDC0D1F0000E010109
:104858002F6F000E2E6F48EF24F0CAC0A6F0CBC011
:10486800A7F0D00E0001A86F000EA96FCEC0AAF065
:10487800CFC0ABF055EC00F00001A65101012E2786
:104888000001A75101012F23D0C0F6FFD1C0F7FFC7
:104898000800F5500009D8A454EF24F056EF24F08E
:1048A80031EF24F02EC1CAF02FC1CBF0120003EC77
:1048B80028F0E70E0001D86F7F0ED96F000EDB6F6E
:1048C800010EDA6FE80EDC6F030EDD6F000EDE6F8F
:1048D800000EDF6FF60EE06F4D0EE16F63EC10F027
:1048E800EE0E0001D86F7F0ED96F000EDB6F020E3F
:1048F800DA6F960EDC6F000EDD6F000EDE6F000EB5
:10490800DF6FE20EE06F4F0EE16F63EC10F0AEEC7C
:1049180005F053EF00F0000E0101C86F4B0EC96F90
:10492800000ECA6F000ECB6F000ECC6F000ECD6F5D
:10493800080ECE6F000E216E1A0E366E010EEEECCA
:1049480025F01E0E366E020EEEEC25F0000E2E6ED1
:10495800400E2F6E050E306E400E316E020E36EC94
:1049680016F02EC01BF02FC01CF0000E0001F26FD5
:10497800000EF36F000E2D6E12006AA0C6EF24F031
:10498800C8EF24F0EFEF24F01FC0D9FF20C0DAFFF2
:10499800800EDE18D8A4D3EF24F0D5EF24F0EEEF84
:1049A80024F00FC0D9FF10C0DAFF840EDE18D8A497
:1049B800E0EF24F0E2EF24F0EEEF24F01FC0D9FF7F
:1049C80020C0DAFF0C0EDF6E1FC0D9FF20C0DAFF4F
:1049D800000EDB8E6A90659A12006AA0F6EF24F04A
:1049E800F8EF24F01FEF25F01FC0D9FF20C0DAFF31
:1049F800800EDE18D8A403EF25F005EF25F01EEF92
:104A080025F00FC0D9FF10C0DAFF840EDE18D8A435
:104A180010EF25F012EF25F01EEF25F01FC0D9FF8B
:104A280020C0DAFF0C0EDF6E1FC0D9FF20C0DAFFEE
:104A3800000EDB8E6A90659A120000016B6F000110
:104A480068A529EF25F02BEF25F030EF25F0000EB3
:104A5800606F6B51D3EC20F0000168A336EF25F0AE
:104A680038EF25F03DEF25F0010E606F6B51D3EC68
:104A780020F06A0E00016B25696F6A6B0F0E6A23BE
:104A880069C0D9FF6AC0DAFF68C0DFFF120062C0E0
:104A980069F063C06AF060C067F061C068F065EFF4
:104AA80025F069C0D9FF6AC0DAFFDF50666F694B2D
:104AB8006A2B67C0D9FF68C0DAFF66C0DFFF674BA3
:104AC800682B00016407D8A06507642906E16529F9
:104AD800D8A471EF25F073EF25F055EF25F01200FB
:104AE800D60E0001DA6F000EDB6FD2C0DCF0D3C047
:104AF800DDF0000EDF6F000EDE6F000EE16F000EBE
:104B0800E06FDC0ECA6F000ECB6FD4C0CCF0D5C0FE
:104B1800CDF0DA0ECE6F000ECF6F26EC24F0000138
:104B2800DE51D225D96EDF51D321DA6E000EDF6E49
:104B3800120060C062F061C063F0A6EF25F00001CA
:104B4800604B612B60C0F6FF61C0F7FFF86A070E83
:104B5800F76403D00800F55005D0F6CFE1FFF7CF92
:104B6800E2FFE7500009D8A4BCEF25F0BEEF25F01E
:104B7800A3EF25F000016251605D606F63516159D8
:104B8800616F120030C036F031C037F02EC034F0FB
:104B98002FC035F0E0EF25F036C0D9FF37C0DAFF77
:104BA800DF50386E364A372A34C0D9FF35C0DAFFAD
:104BB80038C0DFFF344A352A3206D8A033063228F7
:104BC80006E13328D8A4EBEF25F0EDEF25F0D0EF80
:104BD80025F01200396E36A4F4EF25F0F6EF25F033
:104BE800FBEF25F0000E2E6E3950D7EC21F036A2DF
:104BF80000EF26F002EF26F007EF26F0010E2E6EEA
:104C08003950D7EC21F06A0E3924376E386A0F0E06
:104C1800382237C0D9FF38C0DAFF36C0DFFF1200AC
:104C2800000E0001766F000E756F27EF26F074C036
:104C380067F0686B72C069F073C06AF04EEC1FF0E1
:104C48000001754B762B75517025D96E76517121FF
:104C5800DA6EDF50746F7451D8A435EF26F037EF51
:104C680026F01BEF26F0120001013551D8A43FEFC2
:104C780026F041EF26F05AEF26F0000E606E000E87
:104C8800646E160E626E9F0E666E7B0E646EA59441
:104C9800A38450EF26F0608660A655EF26F057EF04
:104CA80026F04FEF26F0010E0101356F120062C0A9
:104CB80064F063C065F060C066F061C067F064C00E
:104CC800F6FF65C0F7FF0001644B652B66C0D9FF8E
:104CD80067C0DAFF664B672B0800F5CFDFFFDF50B0
:104CE800D8A479EF26F07BEF26F063EF26F01200C8
:104CF800000173BF8AEF26F0735106E17205D8B040
:104D080088EF26F08AEF26F098EF26F072C074F04C
:104D180073C075F0741F751F744B752B74C072F0D7
:104D280075C073F09CEF26F072C072F073C073F018
:104D38001200000E296E000E00016D6F740E6C6F6C
:104D4800000E6E6F000E6F6F000E716F000E706FA9
:104D5800BCEC22F060926494B3EF26F0659465B4DD
:104D6800B8EF26F0BAEF26F0B2EF26F0000E226E6A
:104D7800120002EE00F0400EEE6AE806FDE101EED8
:104D880000F0CF0EEE6AE806FDE100EEEEF0110E3F
:104D9800EE6AE806FDE100EE01F02D0EEE6AE80687
:104DA800FDE15A905A92000EF86E00015BEF24F074
:104DB800000E296E000E3B6E740E3A6E000E3C6EAD
:104DC800000E3D6E000E3F6E000E3E6E01EC23F0AD
:104DD80060926494F1EF26F0659465B4F6EF26F0DE
:104DE800F8EF26F0F0EF26F0000E226E1200000E0B
:104DF8000001D26F020ED36FA50ED46F7F0ED56F50
:104E080079EC27F060C0D6F061C0D7F062C0D8F066
:104E180063C0D9F074EC25F0000E0001656F020E36
:104E2800666F23EC28F01200010E01011427000E12
:104E38001523162317232950D8A425EF27F027EF89
:104E480027F031EF27F0222A2250D8A42EEF27F09E
:104E580030EF27F031EF27F022681200010E010130
:104E68001427000E1523162317232950D8A43FEF23
:104E780027F041EF27F04BEF27F0222A2250D8A441
:104E880048EF27F04AEF27F04BEF27F0226812008F
:104E9800648465986082010E296E000E226E000EF1
:104EA80000016D6F750E6C6F000E6E6F000E6F6FE8
:104EB800000E716F000E706FBCEC22F0120064845B
:104EC80065986082010E296E000E226E000E3B6E00
:104ED800750E3A6E000E3C6E000E3D6E000E3F6E73
:104EE800000E3E6E01EC23F01200F29EF29C18C1F7
:104EF80064F019C165F01AC166F01BC167F0F28E43
:104F0800F28C64C060F065C061F066C062F067C092
:104F180063F01200D40E0001D66F000ED76F000E9A
:104F2800CA6F000ECB6FD2C0CCF0D3C0CDF0D60E76
:104F3800CE6F000ECF6F26EC24F0120000016051F6
:104F48006203F3CF64F0F4CF65F060516303F3506C
:104F5800652761516203F350652764C060F065C03E
:104F680061F012000001656F65C066F02D50D8A48D
:104F7800C0EF27F0C2EF27F0C9EF27F0660E000157
:104F8800606F000E616FB9EC23F012009DA0CFEFA7
:104F980027F0D1EF27F0DCEF27F09EA0D6EF27F01F
:104FA800D8EF27F0DCEF27F05BEC28F046EC28F090
:104FB8005A9211000001606F60C0FAF0CD90CD8662
:104FC800CD503F0B8009CD6ECF0ECD16CD94CF6856
:104FD800DE0ECE6ECD80CC9E12008CB0F6EF27F0A0
:104FE800F9EF27F0010EFAEF27F0000EFF0A000193
:104FF800606F8C506019FE0B60198C6E120055ECB6
:1050080028F061EC28F032EC28F0C5EC11F038EC0F
:1050180026F0010E4EEC28F03CEC28F012009D80A2
:105028009E900001FA05D8A41CEF28F01EEF28F086
:1050380021EF28F09F8022EF28F09F9012002D503A
:10504800D8A429EF28F02BEF28F031EF28F065C01D
:1050580060F066C061F0B9EC23F01200BA94BA505F
:10506800FC0B0209BA6E870EBA16000EBC6E12004F
:10507800D08EF198F092F09EF08813EC28F0F28E22
:10508800F28C1200010E01011827000E19231A23B1
:105098001B2312000001616F00016151DEEC27F053
:1050A8001200D386D288FC0ED316D38E1200CF6896
:1050B800DE0ECE6E66EC28F012000F015E91959020
:0850C8008C9012009E90120072
:107ECC0000787F187F4C7FD57E09024300020100A9
:107EDC00C032090400000102020100052400100157
:107EEC0004240202052406000105240100010705F3
:107EFC0081030A000209040100020A0000000705C0
:107F0C0002024000000705820240000034034D00CD
:107F1C006900630072006F00630068006900700004
:107F2C00200054006500630068006E006F006C0058
:107F3C006F0067007900200049006E0063002E007E
:107F4C001A03500072006F00640075006300740027
:107F5C0020004E0061006D0065001201000202005D
:107F6C000008D8040A0000010102000104030904FE
:107F7C004572726F72202D3E204E6F6D62726520BD
:107F8C006465206C61205461726561206D75792087
:107F9C006772616E64650D0A0048656C6C6F2057E2
:107FAC006F726C642C204D696C6C69733D20256C70
:107FBC00750D0A00546172656120637265616461BC
:107FCC0020233A2025640D0A0D0A00437265616E68
:107FDC00646F2054617265610D0A005461736B20EB
:107FEC0031005461736B2032006C64006C69006C5E
:037FFC007500000D
:020000040020DA
:08000000FFFFFFFFFFFFFFFF00
:020000040030CA
:0E00000023225E3CFFC385FF0FC00FE00F40C0
:00000001FF
