:020000040000FA
:0400000053EF00F0CA
:060008005A8298EF27F078
:100018005A80D8CF4DF0E8CF4EF0E0CF4FF0E1CF87
:1000280050F0E2CF51F0D9CF52F0DACF53F0F3CFFE
:1000380054F0F4CF55F0F6CF56F0F7CF57F0F8CF8D
:1000480058F0F5CF59F0A3A42CEF00F02EEF00F0F4
:1000580037EF00F0A4A433EF00F035EF00F037EFEE
:1000680000F006EC0AF059C0F5FF58C0F8FF57C079
:10007800F7FF56C0F6FF55C0F4FF54C0F3FF53C056
:10008800DAFF52C0D9FF51C0E2FF50C0E1FF4FC0B4
:10009800E0FF4EC0E8FF4DC0D8FF5A90100001EFB6
:1000A80027F0A8C0D9FFA9C0DAFFDECFF6FFDDCF61
:1000B800F7FF0800F550250AD8A465EF00F067EFB0
:1000C80000F061EF02F0A8C0D9FFA9C0DAFFDE2A6C
:1000D800000EDD22000E01012B6F000E2A6F2AC1CF
:1000E800EFF02BC1F0F00001ED69EE69A8C0D9FF6F
:1000F800A9C0DAFFDECFF6FFDDCFF7FF0800F55025
:10010800640AD8B48AEF00F08CEF00F09EEF00F09C
:10011800A8C0D9FFA9C0DAFFDECFF6FFDDCFF7FF11
:100128000800F550690AD8A49CEF00F09EEF00F093
:10013800DEEF00F0A8C0D9FFA9C0DAFFDE2A000E62
:10014800DD22AAC0D9FFABC0DAFFDFCFACF0020EC8
:10015800DE26DFCFADF0000EDD22ACC0D9FFADC08A
:10016800DAFFDECFBAF0DDCFBBF0000EBBBFFF0E6B
:10017800BC6FBD6FBE6FBF6FC06FC16FA6C082F08E
:10018800A7C083F0BAC084F0BBC085F0BCC086F0BD
:10019800BDC087F0BEC088F0BFC089F0C0C08AF07B
:1001A800C1C08BF07AEC07F082C0A6F083C0A7F03C
:1001B8007DEF02F0A8C0D9FFA9C0DAFFDECF60F05A
:1001C800DDCF61F0F50E626F7F0E636F000E656F15
:1001D800020E646FA9EC1EF0000160516111D8B4E1
:1001E800F8EF00F0FAEF00F016EF01F0A8C0D9FF21
:1001F800A9C0DAFFDECF60F0DDCF61F0F80E626FE4
:100208007F0E636F000E656F020E646FA9EC1EF01F
:10021800000160516111D8A414EF01F016EF01F04C
:1002280073EF01F0020EA8C0D9FFA9C0DAFFDE26DD
:10023800000EDD22AAC0D9FFABC0DAFFDFCFACF0D9
:10024800040EDE26DFCFADF0000EDD22ACC0D9FFF4
:10025800ADC0DAFFDECFAEF0DECFAFF0DECFB0F06C
:10026800DECFB1F0AEC0B2F0AFC0B3F0B0C0B4F002
:10027800B1C0B5F0B66BB5BFB669B6C0B7F0B6C019
:10028800B8F0B6C0B9F0B2C0BAF0B3C0BBF0B4C0F1
:10029800BCF0B5C0BDF0B6C0BEF0B7C0BFF0B8C0C6
:1002A800C0F0B9C0C1F0A6C082F0A7C083F0BAC040
:1002B80084F0BBC085F0BCC086F0BDC087F0BEC06E
:1002C80088F0BFC089F0C0C08AF0C1C08BF07AEC5A
:1002D80007F082C0A6F083C0A7F07DEF02F0A8C0A7
:1002E800D9FFA9C0DAFFDECFF6FFDDCFF7FF0800A0
:1002F800F550750AD8A483EF01F085EF01F0C6EF39
:1003080001F0A8C0D9FFA9C0DAFFDE2A000EDD225D
:10031800AAC0D9FFABC0DAFFDFCFACF0020EDE26F1
:10032800DFCFADF0000EDD22ACC0D9FFADC0DAFFE3
:10033800DECFAEF0DDCFAFF0AEC0C2F0AFC0C3F0DD
:10034800C46BC56BC66BC76BC86BC96BA6C082F0A4
:10035800A7C083F0C2C084F0C3C085F0C4C086F0D3
:10036800C5C087F0C6C088F0C7C089F0C8C08AF089
:10037800C9C08BF01DEC0BF082C0A6F083C0A7F0BB
:100388007DEF02F0A8C0D9FFA9C0DAFFDECF60F088
:10039800DDCF61F0FB0E626F7F0E636F000E656F3D
:1003A800020E646FA9EC1EF0000160516111D8A41F
:1003B800E0EF01F0E2EF01F02AEF02F0020EA8C030
:1003C800D9FFA9C0DAFFDE26000EDD22AAC0D9FFB8
:1003D800ABC0DAFFDFCFACF0040EDE26DFCFADF026
:1003E800000EDD22ACC0D9FFADC0DAFFDECFAEF023
:1003F800DECFAFF0DECFB0F0DECFB1F0AE51C26FDE
:10040800AF51C36FB051C46FB151C56FC66BC76BE5
:10041800C86BC96BA6C082F0A7C083F0C2C084F0C5
:10042800C3C085F0C4C086F0C5C087F0C6C088F0D8
:10043800C7C089F0C8C08AF0C9C08BF01DEC0BF0AA
:1004480082C0A6F083C0A7F07DEF02F0A8C0D9FF54
:10045800A9C0DAFFDECFF6FFDDCFF7FF0800F550C1
:10046800250AD8A43AEF02F03CEF02F054EF02F06C
:10047800A8C0D9FFA9C0DAFFDE2A000EDD22000ECF
:10048800686F250E676FA6C069F0A7C06AF0FBEC1D
:1004980021F0000E0001A76F010EA66F7DEF02F09C
:1004A800A8C0D9FFA9C0DAFFDE2A000EDD22000E9F
:1004B800A76F000EA66F7DEF02F0A8C0D9FFA9C0F4
:1004C800DAFFDECFF6FFDDCFF7FF0800F5500001B9
:1004D800676F686BA6C069F0A7C06AF0FBEC21F0F3
:1004E800A8C0D9FFA9C0DAFFDE2A000EDD224DEF31
:1004F80002F0120004013205D8A485EF02F087EF5C
:1005080002F0A1EF02F030511F0B0009D8A48FEFC1
:1005180002F091EF02F0A1EF02F00C8E030E3119F8
:10052800D8A499EF02F09BEF02F09FEF02F0010EC2
:100538002A6EA1EF02F0000E2A6E3251D8A4A7EF5E
:1005480002F0A9EF02F039EF04F030511F0B020A54
:10055800D8A4B1EF02F0B3EF02F039EF04F0345150
:100568000F0B0009D8B4BBEF02F0BDEF02F039EF72
:1005780004F034510F0B0001746F030E7461C7EF60
:1005880002F0C9EF02F039EF04F0200E01012F1933
:10059800D8A4D1EF02F0D3EF02F039EF04F00C8EBB
:1005A800040134BFDAEF02F0DCEF02F0FCEF02F0F6
:1005B80034510F0B0001746F7451020DE70EF324D0
:1005C800D96E000EF420DA6EDECF79F0DDCF7AF046
:1005D800040134510F0B0001746F756B150E7425EF
:1005E800D96E000E7521DA6EDF50786F1AEF03F0BE
:1005F80034510F0B0001746F7451020D0F0EF32468
:10060800D96E000EF420DA6EDECF79F0DDCF7AF005
:10061800040134510F0B0001746F756B180E7425AB
:10062800D96E000E7521DA6EDF50786F78B11FEF42
:1006380003F021EF03F029EF03F0FB0E7915796F32
:10064800FF0E7A157A6F2EEF03F0040E7911796F89
:100658007A517A6F040134BF34EF03F036EF03F0B8
:1006680048EF03F034510F0B0001746F7451020D01
:10067800E70EF324D96E000EF420DA6E79C0DEFF9F
:100688007AC0DDFF58EF03F034510F0B0001746F8F
:100698007451020D0F0EF324D96E000EF420DA6E99
:1006A80079C0DEFF7AC0DDFF030E04013119D8A43A
:1006B80060EF03F062EF03F09EEF03F079C0D9FF1B
:1006C8007AC0DAFF0001DFAE6CEF03F06EEF03F0E3
:1006D80090EF03F0040134BF74EF03F076EF03F0FA
:1006E80084EF03F034510F0B0001746F756B150E16
:1006F8007425D96E000E7521DA6EDF8290EF03F053
:1007080034510F0B0001746F756B180E7425D96E78
:10071800000E7521DA6EDF8279C0D9FF7AC0DAFF60
:10072800000EDB8479C0D9FF7AC0DAFF000EDB8EB9
:1007380039EF04F0040E00017919796F7A517A6F54
:1007480079C0D9FF7AC0DAFFDFAEADEF03F0AFEFC3
:1007580003F0CBEF03F079C0D9FF7AC0DAFF7F0E40
:10076800DF1679C0D9FF7AC0DAFF000EDB8C000EE5
:100778006D6F050E6C6F79C06EF07AC06FF0000E69
:10078800716F020E706FD6EC22F0D1EF03F079C0D2
:10079800D9FF7AC0DAFF000EDB8C040E000179194C
:1007A800796F7A517A6F78B3DCEF03F0DEEF03F0FC
:1007B800E9EF03F079C0D9FF7AC0DAFFDFAEE7EFDF
:1007C80003F0E9EF03F021EF04F0040134BFEFEF89
:1007D80003F0F1EF03F0FFEF03F034510F0B0001CA
:1007E800746F756B150E7425D96E000E7521DA6E4F
:1007F800DF920BEF04F034510F0B0001746F756B2F
:10080800180E7425D96E000E7521DA6EDF9279C044
:10081800D9FF7AC0DAFF3B0EDF16000E6D6F050EAA
:100828006C6F79C06EF07AC06FF0000E716F020EB7
:10083800706FD6EC22F027EF04F079C0D9FF7AC0A8
:10084800DAFF3B0EDF16040134510F0B0001746F01
:10085800756B6A0E7425766F0F0E7521776F76C0EB
:10086800D9FF77C0DAFFFE0EDF1612000401320549
:10087800D8A441EF04F043EF04F05DEF04F03051E9
:100888001F0B0009D8A44BEF04F04DEF04F05DEF07
:1008980004F00C8E030E3119D8A455EF04F057EF6D
:1008A80004F05BEF04F0010E2A6E5DEF04F0000E19
:1008B8002A6E3251D8A463EF04F065EF04F0E1EF3B
:1008C80005F030511F0B020AD8A46DEF04F06FEF4A
:1008D80004F0E1EF05F034510F0B0009D8B477EFBD
:1008E80004F079EF04F0E1EF05F034510F0B426E9C
:1008F800030E426082EF04F084EF04F0E1EF05F0AC
:10090800200E01012F19D8A48CEF04F08EEF04F00B
:10091800E1EF05F00C8E040134BF95EF04F097EF7A
:1009280004F0B4EF04F034510F0B426E4250020D44
:10093800E70EF324D96E000EF420DA6EDECF47F00E
:10094800DDCF48F034510F0B426E436A150E422436
:10095800D96E000E4320DA6EDF50466ECFEF04F0FA
:1009680034510F0B426E4250020D0F0EF324D96E14
:10097800000EF420DA6EDECF47F0DDCF48F03451B8
:100988000F0B426E436A180E4224D96E000E4320A4
:10099800DA6EDF50466E46B0D4EF04F0D6EF04F0BE
:1009A800DEEF04F0FB0E4714476EFF0E4814486E46
:1009B800E3EF04F0040E4710476E4850486E34BF0A
:1009C800E8EF04F0EAEF04F0FBEF04F034510F0B0A
:1009D800426E4250020DE70EF324D96E000EF42049
:1009E800DA6E47C0DEFF48C0DDFF0AEF05F034517C
:1009F8000F0B426E4250020D0F0EF324D96E000EFB
:100A0800F420DA6E47C0DEFF48C0DDFF030E31195F
:100A1800D8A411EF05F013EF05F04BEF05F047C030
:100A2800D9FF48C0DAFFDFAE1CEF05F01EEF05F076
:100A38003DEF05F034BF23EF05F025EF05F032EF69
:100A480005F034510F0B426E436A150E4224D96EDD
:100A5800000E4320DA6EDF823DEF05F034510F0BB4
:100A6800426E436A180E4224D96E000E4320DA6E95
:100A7800DF8247C0D9FF48C0DAFF000EDB8447C0D9
:100A8800D9FF48C0DAFF000EDB8EE1EF05F0040E57
:100A98004718476E4850486E47C0D9FF48C0DAFF2C
:100AA800DFAE59EF05F05BEF05F077EF05F047C0D3
:100AB800D9FF48C0DAFF7F0EDF1647C0D9FF48C00C
:100AC800DAFF000EDB8C000E3B6E050E3A6E47C057
:100AD8003CF048C03DF0000E3F6E020E3E6E1BEC2F
:100AE80023F07DEF05F047C0D9FF48C0DAFF000EBC
:100AF800DB8C040E4718476E4850486E46B287EFA5
:100B080005F089EF05F094EF05F047C0D9FF48C01C
:100B1800DAFFDFAE92EF05F094EF05F0CAEF05F0CB
:100B2800040134BF9AEF05F09CEF05F0A9EF05F03A
:100B380034510F0B426E436A150E4224D96E000ED3
:100B48004320DA6EDF92B4EF05F034510F0B426E9A
:100B5800436A180E4224D96E000E4320DA6EDF92E3
:100B680047C0D9FF48C0DAFF3B0EDF16000E3B6EC8
:100B7800050E3A6E47C03CF048C03DF0000E3F6E8F
:100B8800020E3E6E1BEC23F0D0EF05F047C0D9FFF4
:100B980048C0DAFF3B0EDF16040134510F0B426EDA
:100BA800436A6A0E4224446E0F0E4320456E44C0C9
:100BB800D9FF45C0DAFFFE0EDF161200000E010154
:100BC800B16F020EB06F000EB56F000EB46F92EFEA
:100BD80006F0010E0101B425B26F000EB521B36F06
:100BE8007DEF06F0B4C160F0B5C161F0000E636F2F
:100BF8001A0E626F5CEC27F0330E00016025D96E87
:100C0800010E6121DA6EB2C160F0B3C161F0000E6D
:100C1800636F1A0E626F5CEC27F0330E00016025DB
:100C2800E16E010E6121E26EDE50E65CDE50E658B0
:100C3800D8B021EF06F023EF06F07AEF06F0B4C142
:100C480060F0B5C161F0000E636F1A0E626F5CEC64
:100C580027F0310E00016025D96E010E6121DA6E90
:100C680011EE94F0190EDBCFE3FFE806FCE2B2C107
:100C780060F0B3C161F0000E636F1A0E626F5CEC36
:100C880027F0310E00016025D96E010E6121DA6E60
:100C9800B4C160F0B5C161F0000E636F1A0E626FE7
:100CA8005CEC27F0310E00016025E16E010E612138
:100CB800E26E190EDBCFE3FFE806FCE221EE94F0CA
:100CC800B2C160F0B3C161F0000E636F1A0E626FBB
:100CD8005CEC27F0310E00016025E16E010E612108
:100CE800E26E190EDBCFE3FFE806FCE20101B24B2E
:100CF800B32BB251B05DB151800A0001DA6F010126
:100D0800B351800A0001DA59D8B08DEF06F08FEFA1
:100D180006F0F6EF05F00101B44BB52BB451B05D08
:100D2800B151800A0001DA6F0101B551800A000152
:100D3800DA59D8B0A2EF06F0A4EF06F0EDEF05F00F
:100D4800ECEC08F01F0E01012F65ADEF06F0AFEFD8
:100D580006F0A4EF06F060A2B4EF06F0B6EF06F0D6
:100D6800B8EF06F0A4EF06F020EC0CF0000E01013D
:100D7800B76F000EB66FB6C160F0B7C161F0000E74
:100D88000001636F1A0E626F5CEC27F03D0E0001E4
:100D98006025D96E010E6121DA6EDE04DE10D8A45A
:100DA800D8EF06F0DAEF06F069EF07F0B6C160F0A9
:100DB800B7C161F0000E636F1A0E626F5CEC27F02A
:100DC800350E00016025D96E010E6121DA6EDECF85
:100DD800DAF0DECFDBF0DECFDCF0DECFDDF0B6C15F
:100DE80060F0B7C161F0000E636F1A0E626F5CECC1
:100DF80027F0390E00016025D96E010E6121DA6EE7
:100E0800DECFDEF0DECFDFF0DECFE0F0DECFE1F0E8
:100E1800DA51DE25E26FDB51DF21E36FDC51E0219F
:100E2800E46FDD51E121E56F47EC27F00001E25165
:100E3800605DE3516159E4516259E5516359D8A0A5
:100E480028EF07F02AEF07F069EF07F0B6C160F066
:100E5800B7C161F0000E636F1A0E626F5CEC27F089
:100E6800390E00016025D96E010E6121DA6E47EC5A
:100E780027F0000160C0DEFF61C0DEFF62C0DEFF58
:100E880063C0DEFFB6C160F0B7C161F0000E636FEA
:100E98001A0E626F5CEC27F03F0E00016025D96ED8
:100EA800010E6121DA6EDECFAEF1DDCFAFF102D8EF
:100EB80069EF07F005000101FA6EAE51FD6EAF5102
:100EC800FE6EF850FF6EFA5012000101B64BB72BB8
:100ED800B75109E1030EB65DD8A075EF07F077EFBB
:100EE80007F0BFEF06F0A4EF06F0120084C09CF0F4
:100EF80085C09DF086C09EF087C09FF088C0A0F096
:100F080089C0A1F08AC0A2F08BC0A3F00001A3BFE2
:100F180090EF07F093EF07F0010E94EF07F0000E43
:100F28009A6F9B6B9A519B11D8B49DEF07F09FEF76
:100F380007F0AFEF07F0A31FA21FA11FA01F9F1F5D
:100F48009E1F9D1F9C6D000E9D239E239F23A02303
:100F5800A123A223A323EEBFB4EF07F0B6EF07F057
:100F6800B7EF07F0EF93EEBFC4EF07F0EE5106E1DD
:100F7800ED05D8B0C2EF07F0C4EF07F0CAEF07F0ED
:100F8800000E976F010E966FCEEF07F0EDC096F04A
:100F9800EEC097F02AC198F02BC199F09A519B1195
:100FA800D8A4D9EF07F0DBEF07F0E2EF07F0EFA5E1
:100FB800E0EF07F0E2EF07F0E5EF07F09807D8A0B9
:100FC8009907000EA56F1F0EA46F000E0101846F14
:100FD8006BEF08F0A407D8A0A507650EA425D96E65
:100FE800010EA521DA6E9CC060F09DC061F09EC024
:100FF80062F09FC063F0A0C064F0A1C065F0A2C019
:1010080066F0A3C067F00A0E686F000E696F000EE5
:101018006A6F000E6B6F000E6C6F000E6D6F000E26
:101028006E6F000E6F6FE4EC0FF060C08CF061C063
:101038008DF062C08EF063C08FF064C090F065C020
:1010480091F066C092F067C093F08CC072F08EC0C9
:1010580073F06DEC26F000017251300FDF6E9607C9
:10106800D8A097079807D8A099079CC060F09DC0A2
:1010780061F09EC062F09FC063F0A0C064F0A1C0A0
:1010880065F0A2C066F0A3C067F00A0E686F000E94
:10109800696F000E6A6F000E6B6F000E6C6F000EAA
:1010A8006D6F000E6E6F000E6F6FF2EC0CF060C08B
:1010B8009CF061C09DF062C09EF063C09FF064C068
:1010C800A0F065C0A1F066C0A2F067C0A3F000015F
:1010D800A5BF77EF08F0A55108E1A405D8A077EFE0
:1010E80008F079EF08F0A9EF08F09C519D119E11C6
:1010F8009F11A011A111A211A311D8A486EF08F085
:1011080088EF08F0EEEF07F097BF95EF08F09751DA
:1011180006E19605D8B093EF08F095EF08F0EEEFEA
:1011280007F099BFA0EF08F0995108E19805D8A0F9
:10113800A0EF08F0A2EF08F0A9EF08F0EFB3A7EFCF
:1011480008F0A9EF08F0EEEF07F09A519B11D8A428
:10115800B0EF08F0B2EF08F0B9EF08F0EFA5B7EF7D
:1011680008F0B9EF08F0D7EF08F0A407D8A0A50752
:101178009A519B11D8A4C3EF08F0C5EF08F0CBEF44
:1011880008F0000E956F2B0E946FCFEF08F0000E4D
:10119800956F2D0E946F650EA425D96E010EA521AD
:1011A800DA6E94C0DFFF82C077F083C078F0650EF6
:1011B800A425796F010EA5217A6F98C07BF099C09C
:1011C8007CF082EC1FF077C082F078C083F01200C8
:1011D80001012F05D8A4F3EF08F0F5EF08F002EFAE
:1011E80009F060BAFAEF08F0FCEF08F002EF09F036
:1011F800000E656E64806488020E2F6F65A407EF89
:1012080009F009EF09F013EF09F064A40EEF09F0F3
:1012180010EF09F013EF09F065948EEC26F060A248
:1012280018EF09F01AEF09F01DEF09F0A49405EF83
:101238000AF065A022EF09F024EF09F032EF09F077
:1012480064A029EF09F02BEF09F032EF09F0F9EC6F
:1012580011F0A384040E01012F6F659065A837EF84
:1012680009F039EF09F042EF09F064A83EEF09F000
:1012780040EF09F042EF09F01AEC27F065AC47EFB0
:1012880009F049EF09F076EF09F064AC4EEF09F088
:1012980050EF09F05FEF09F0000E00016D6F730E5B
:1012A8006C6F000E6E6F000E6F6F000E716F010E87
:1012B800706FD6EC22F0659CCDEC26F00001F7515A
:1012C800D8B469EF09F06BEF09F06CEF09F0F70794
:1012D800F751D8A472EF09F074EF09F076EF09F02E
:1012E80043EC1DF065AA7BEF09F07DEF09F086EF6E
:1012F80009F064AA82EF09F084EF09F086EF09F09B
:10130800DBEC24F065A28BEF09F08DEF09F0A4EF78
:1013180009F064A292EF09F094EF09F0A4EF09F044
:101328007F0E00016D6F6C69000E6E6F000E6F6F9F
:10133800000E716F010E706FD6EC22F0000E676E12
:10134800040E01012F61ABEF09F0ADEF09F0B0EF2A
:1013580009F0A49405EF0AF064A6B5EF09F0B7EF19
:1013680009F004EF0AF0000E00017E6F65A6BFEFDA
:1013780009F0C1EF09F004EF0AF061CFFDF0FD318B
:10138800E832E8320F0BF86F6596FDB5CEEF09F03D
:10139800D0EF09F0D9EF09F0150EF825D96EDA6A01
:1013A800000EDA22DF70E0EF09F0180EF825D96E8A
:1013B800DA6A000EDA22DF70F851D8A4E6EF09F0F5
:1013C800E8EF09F0ECEF09F0E7EC1FF0FAEF09F0AD
:1013D800000E6D6F720E6C6FFD0E6E6F000E6F6FEC
:1013E800000E716F000E706FD6EC22F000017E2B9C
:1013F800030E7E6502EF0AF004EF0AF0BAEF09F077
:10140800A494120001012F05D8A40DEF0AF00FEFE4
:101418000AF01CEF0AF060BA14EF0AF016EF0AF0AF
:101428001CEF0AF0000E656E64806488020E2F6F50
:1014380065A421EF0AF023EF0AF02DEF0AF064A467
:1014480028EF0AF02AEF0AF02DEF0AF06594AEECC7
:1014580026F060A232EF0AF034EF0AF037EF0AF014
:10146800A4941CEF0BF065A03CEF0AF03EEF0AF0E5
:101478004CEF0AF064A043EF0AF045EF0AF04CEF96
:101488000AF0A1EC12F0A384040E01012F6F6590FD
:1014980065A851EF0AF053EF0AF05CEF0AF064A870
:1014A80058EF0AF05AEF0AF05CEF0AF031EC27F037
:1014B80065AC61EF0AF063EF0AF08FEF0AF064ACF5
:1014C80068EF0AF06AEF0AF078EF0AF0000E3B6E58
:1014D800730E3A6E000E3C6E000E3D6E000E3F6EAF
:1014E800010E3E6E1BEC23F0659CE7EC26F0000134
:1014F800F751D8B482EF0AF084EF0AF085EF0AF0CA
:10150800F707F751D8A48BEF0AF08DEF0AF08FEFA9
:101518000AF0BBEC1DF065AA94EF0AF096EF0AF00A
:101528009FEF0AF064AA9BEF0AF09DEF0AF09FEF85
:101538000AF00BEC25F065A2A4EF0AF0A6EF0AF07A
:10154800BCEF0AF064A2ABEF0AF0ADEF0AF0BCEF13
:101558000AF07F0E3B6E3A68000E3C6E000E3D6E40
:10156800000E3F6E010E3E6E1BEC23F0000E676E00
:10157800040E01012F61C3EF0AF0C5EF0AF0C8EFAE
:101588000AF0A4941CEF0BF064A6CDEF0AF0CFEF9D
:101598000AF01BEF0BF0000E4C6E65A6D6EF0AF0B2
:1015A800D8EF0AF01BEF0BF061CFFDF00001FD3121
:1015B800E832E8320F0BF86F6596FDB5E6EF0AF0F2
:1015C800E8EF0AF0F1EF0AF0150EF825D96EDA6A9D
:1015D800000EDA22DF70F8EF0AF0180EF825D96E3F
:1015E800DA6A000EDA22DF70F851D8A4FEEF0AF0AA
:1015F80000EF0BF004EF0BF044EC20F012EF0BF0CF
:10160800000E3B6E720E3A6EFD0E3C6E000E3D6E85
:10161800000E3F6E000E3E6E1BEC23F04C2A030EAC
:101628004C6419EF0BF01BEF0BF0D1EF0AF0A49408
:1016380012000001EEBF23EF0BF025EF0BF026EFB1
:101648000BF0EF93EEBF33EF0BF0EE5106E1ED0533
:10165800D8B031EF0BF033EF0BF039EF0BF0000E91
:10166800956F010E946F3DEF0BF0EDC094F0EEC056
:1016780095F02AC196F02BC197F084C098F085C0E8
:1016880099F086C09AF087C09BF088C09CF089C00A
:101698009DF08AC09EF08BC09FF0000EA16F1F0EB8
:1016A800A06F000E0101846FD1EF0BF0A007D8A046
:1016B800A107650EA025D96E010EA121DA6E98C08A
:1016C80060F099C061F09AC062F09BC063F09CC062
:1016D80064F09DC065F09EC066F09FC067F00A0E7A
:1016E800686F000E696F000E6A6F000E6B6F000E58
:1016F8006C6F000E6D6F000E6E6F000E6F6F19EC41
:101708001FF060C08CF061C08DF062C08EF063C0C5
:101718008FF064C090F065C091F066C092F067C029
:1017280093F000018C51300FDF6E9407D8A0950715
:101738009607D8A0970798C060F099C061F09AC042
:1017480062F09BC063F09CC064F09DC065F09EC0D1
:1017580066F09FC067F00A0E686F000E696F000E92
:101768006A6F000E6B6F000E6C6F000E6D6F000ECF
:101778006E6F000E6F6FCAEC1CF060C098F061C00D
:1017880099F062C09AF063C09BF064C09CF065C099
:101798009DF066C09EF067C09FF00001A051A111A6
:1017A800D8B4D9EF0BF0DBEF0BF00BEF0CF098513E
:1017B80099119A119B119C119D119E119F11D8A4EA
:1017C800E8EF0BF0EAEF0BF05AEF0BF095BFF7EFED
:1017D8000BF0955106E19405D8B0F5EF0BF0F7EF53
:1017E8000BF05AEF0BF097BF02EF0CF0975108E19E
:1017F8009605D8A002EF0CF004EF0CF00BEF0CF0FC
:10180800EFB309EF0CF00BEF0CF05AEF0BF082C0BE
:1018180077F083C078F0650EA025796F010EA121BD
:101828007A6F96C07BF097C07CF082EC1FF077C08F
:1018380082F078C083F01200A3940001F151F211F4
:10184800D8B429EF0CF02BEF0CF039EF0CF0F1C005
:10185800D9FFF2C0DAFFDFAE34EF0CF036EF0CF050
:1018680039EF0CF0A384F1EF0CF0030E2D18D8A477
:1018780040EF0CF042EF0CF044EF0CF0000E2D6E30
:101888002D50D8A44AEF0CF04CEF0CF04FEF0CF0B1
:10189800A384F1EF0CF0020E2D18D8A456EF0CF02B
:1018A80058EF0CF06BEF0CF0010E606F000E616FDB
:1018B800000E626F000E636F020EE8EC13F060C05A
:1018C800F1F061C0F2F0030E2D6EF0EF0CF02D0474
:1018D800D8A471EF0CF073EF0CF0F0EF0CF0400EA1
:1018E800F66579EF0CF07BEF0CF07FEF0CF0400E13
:1018F8006C6F81EF0CF0F6C06CF06C51F65DF66F12
:10190800000E0101226F050E236F6CC06BF0000101
:10191800F551D8A492EF0CF094EF0CF0C2EF0CF054
:10192800A7EF0CF025C1D9FF26C1DAFF22C1E1FFDC
:1019380023C1E2FFDFCFE7FF0101224B232B254B19
:10194800262B00016B076B51D8A4ADEF0CF0AFEF5D
:101958000CF096EF0CF0CAEF0CF025C1D9FF26C1A8
:10196800DAFF22C1E1FF23C1E2FFDFCFE7FF010178
:10197800224B232B254B262B00016B076B51D8A438
:10198800C8EF0CF0CAEF0CF0B1EF0CF0F651D8A488
:10199800D0EF0CF0D2EF0CF0E1EF0CF0400E6C1928
:1019A800D8A4D9EF0CF0DBEF0CF0DFEF0CF0020E4F
:1019B8002D6EE1EF0CF0030E2D6E010E606F000E20
:1019C800616F050E626F6CC063F0020EE8EC13F0F5
:1019D80060C0F1F061C0F2F0A3841200000E0001B3
:1019E800716F6FBFFCEF0CF0FAEF0CF00EEF0DF01B
:1019F8006F1F6E1F6D1F6C1F6B1F6A1F691F686D3D
:101A0800000E69236A236B236C236D236E236F23D7
:101A1800010E716F67BF15EF0DF013EF0DF027EF93
:101A28000DF0671F661F651F641F631F621F611F1C
:101A3800606D000E6123622363236423652366239C
:101A48006723010E711B20EE72F0070EDE6AE806AE
:101A5800FDE2685169116A116B116C116D116E11FB
:101A68006F11D8B43AEF0DF03CEF0DF08EEF0DF09A
:101A7800010E706F4AEF0DF0D890683769376A37F2
:101A88006B376C376D376E376F37702B6FAF4FEF23
:101A98000DF051EF0DF040EF0DF0D890723773371D
:101AA8007437753776377737783779376851605DA7
:101AB800695161596A5162596B5163596C51645942
:101AC8006D5165596E5166596F516759D8A06FEFBE
:101AD8000DF071EF0DF082EF0DF06851605F695104
:101AE800615B6A51625B6B51635B6C51645B6D5106
:101AF800655B6E51665B6F51675B7281D8906F331F
:101B08006E336D336C336B336A3369336833702FDC
:101B180051EF0DF07151D8B494EF0DF096EF0DF030
:101B2800A6EF0DF0791F781F771F761F751F741F9A
:101B3800731F726D000E7323742375237623772326
:101B48007823792372C060F073C061F074C062F0CA
:101B580075C063F076C064F077C065F078C066F051
:101B680079C067F0120060C06AF061C06BF00001D4
:101B780064516511D8A4C3EF0DF0C5EF0DF0C7EFA0
:101B88000DF072EF0EF06AC0D9FF6BC0DAFF62C0C9
:101B9800DFFF64516A25666F65516B21676FFF0E21
:101BA8006625D96EFF0E6721DA6E62C0DFFF6551C8
:101BB80007E1030E645DD8B0E4EF0DF0E6EF0DF039
:101BC800E8EF0DF072EF0EF020EE01F06A51D92621
:101BD8006B51DA2262C0DFFF20EE02F06A51D9268B
:101BE8006B51DA2262C0DFFF64516A25666F655166
:101BF8006B21676FFE0E6625D96EFF0E6721DA6EC0
:101C080062C0DFFF64516A25666F65516B21676F9B
:101C1800FD0E6625D96EFF0E6721DA6E62C0DFFF02
:101C2800655107E1070E645DD8B01DEF0EF01FEF98
:101C38000EF021EF0EF072EF0EF020EE03F06A5175
:101C4800D9266B51DA2262C0DFFF64516A25666FBC
:101C580065516B21676FFC0E6625D96EFF0E6721F3
:101C6800DA6E62C0DFFF655107E1090E645DD8B026
:101C780040EF0EF042EF0EF044EF0EF072EF0EF070
:101C88006AC066F06BC067F0661F671F664B672BFC
:101C9800030E6615686F696B68516A2769516B2373
:101CA8006851645F6951655BFC0E6417FF0E651728
:101CB80069EF0EF06AC0D9FF6BC0DAFF62C0DFFFC0
:101CC8006407D8A065076A4B6B2B64516511D8A4CB
:101CD80070EF0EF072EF0EF05EEF0EF012002EC0F5
:101CE80038F02FC039F032503310D8A47EEF0EF000
:101CF80080EF0EF082EF0EF02DEF0FF038C0D9FF15
:101D080039C0DAFF30C0DFFF32503824346E335028
:101D18003920356EFF0E3424D96EFF0E3520DA6E69
:101D280030C0DFFF335007E1030E325CD8B09FEFBD
:101D38000EF0A1EF0EF0A3EF0EF02DEF0FF020EE56
:101D480001F03850D9263950DA2230C0DFFF20EEB2
:101D580002F03850D9263950DA2230C0DFFF32502D
:101D68003824346E33503920356EFE0E3424D96E43
:101D7800FF0E3520DA6E30C0DFFF32503824346E63
:101D880033503920356EFD0E3424D96EFF0E3520C0
:101D9800DA6E30C0DFFF335007E1070E325CD8B08F
:101DA800D8EF0EF0DAEF0EF0DCEF0EF02DEF0FF0BB
:101DB80020EE03F03850D9263950DA2230C0DFFF40
:101DC80032503824346E33503920356EFC0E3424AA
:101DD800D96EFF0E3520DA6E30C0DFFF335007E1D1
:101DE800090E325CD8B0FBEF0EF0FDEF0EF0FFEFFE
:101DF8000EF02DEF0FF038C034F039C035F0341E36
:101E0800351E344A352A030E3414366E376A365076
:101E18003826375039223650325E3750335AFC0E46
:101E28003216FF0E331624EF0FF038C0D9FF39C031
:101E3800DAFF30C0DFFF3206D8A03306384A392A25
:101E480032503310D8A42BEF0FF02DEF0FF019EF0D
:101E58000FF01200800E04013019D8A436EF0FF0ED
:101E680038EF0FF0E3EF0FF0C00E0C6EC9EF0FF074
:101E7800660E096E7F0E0A6E000E0E6E120E0D6E45
:101E8800E3EF0FF004013251D8A44DEF0FF04FEFFC
:101E98000FF08FEF0FF03251020DD30EF324F66ED0
:101EA8007E0EF420F76E0900F5CF09F00A00F5CF91
:101EB8000AF0020E09240001606F000E0A20616F0B
:101EC80060C0F6FF61C0F7FFF86A070EF76403D039
:101ED8000800F55005D0F6CFE1FFF7CFE2FFE75055
:101EE8000D6E030E09240001606F000E0A20616F59
:101EF80060C0F6FF61C0F7FFF86A070EF76403D009
:101F08000800F55005D0F6CFE1FFF7CFE2FFE75024
:101F18000E6EE3EF0FF0000E0C6EE3EF0FF0030E02
:101F2800040132619AEF0FF09CEF0FF0C1EF0FF050
:101F38003251020DCD0EF324F66E7E0EF420F76EAC
:101F48000900F5CF09F00A00F5CF0AF009C0F6FF3D
:101F58000AC0F7FFF86A070EF76403D00800F550C7
:101F680005D0F6CFE1FFF7CFE2FFE7500001606F41
:101F780060510D6E0E6AE3EF0FF0000E0C6EE3EF8A
:101F88000FF0000E0C6EE3EF0FF033510001606F9D
:101F9800616B6151000AD8B4D4EF0FF0C5EF0FF0B0
:101FA8006051010AD8B43CEF0FF0030AD8B446EFE9
:101FB8000FF0010AD8B493EF0FF0C5EF0FF012003D
:101FC800000E0001716F67BFEEEF0FF0ECEF0FF03E
:101FD80000EF10F0671F661F651F641F631F621FF5
:101FE800611F606D000E61236223632364236523F0
:101FF80066236723010E716F6FBF07EF10F005EFBF
:1020080010F017EF10F06F1F6E1F6D1F6C1F6B1F06
:102018006A1F691F686D000E69236A236B236C238E
:102028006D236E236F23685169116A116B116C114E
:102038006D116E116F11D8B424EF10F026EF10F067
:102048006EEF10F0010E706F34EF10F0D890683713
:1020580069376A376B376C376D376E376F37702B68
:102068006FAF39EF10F03BEF10F02AEF10F0685126
:10207800605D695161596A5162596B5163596C517C
:1020880064596D5165596E5166596F516759D8A099
:1020980050EF10F052EF10F062EF10F06851605FEF
:1020A8006951615B6A51625B6B51635B6C51645B44
:1020B8006D51655B6E51665B6F51675BD8906F338E
:1020C8006E336D336C336B336A3369336833702F17
:1020D8003BEF10F07151D8B474EF10F076EF10F0B8
:1020E80086EF10F0671F661F651F641F631F621F5E
:1020F800611F606D000E61236223632364236523DF
:102108006623672360C060F061C061F062C062F05E
:1021180063C063F064C064F065C065F066C066F0D3
:1021280067C067F01200010E0001E66FD70ED26F8C
:102138007F0ED36F70EC27F03FEF11F0DAC060F03C
:10214800DBC061F08EEC25F00001615109E10B0E56
:10215800605DD8A0B2EF10F0B4EF10F0BCEF10F053
:102168007C0ED26F7F0ED36F70EC27F048EF11F022
:10217800E6511A0D3D0EF324D96E010EF420DA6EE5
:10218800DE04DE10D8B4CBEF10F0CDEF10F03EEF48
:1021980011F0C00ED26F7F0ED36FE6C0D4F0D56BAE
:1021A80070EC27F00001E651E46FE56BE6511A0D7B
:1021B800310EF324D96E010EF420DA6EE4C0DEFF8E
:1021C800E5C0DDFFE6511A0D410EF324606F010EE4
:1021D800F420616FDAC062F0DBC063F04CEC26F0EB
:1021E8000001E6511A0D330EF324D96E010EF420C6
:1021F800DA6EDCC0DEFFDDC0DDFFE6511A0D350EFC
:10220800F324D96E010EF420DA6EDEC0DEFFDFC0E3
:10221800DEFFE0C0DEFFE1C0DEFF47EC27F0000193
:10222800E6511A0D390EF324D96E010EF420DA6E38
:1022380060C0DEFF61C0DEFF62C0DEFF63C0DEFF9C
:10224800E6511A0D3F0EF324D96E010EF420DA6E12
:10225800E2C0DEFFE3C0DDFFE6511A0D3D0EF324B8
:10226800D96E010EF420DA6E010EDE6E000EDD6E00
:1022780048EF11F0E62B020E0001E66546EF11F07B
:1022880048EF11F0A2EF10F01200800E040130198F
:10229800D8A451EF11F053EF11F0F8EF11F0C00E80
:1022A8000C6EDFEF11F0660E096E7F0E0A6E000EDF
:1022B8000E6E120E0D6EF8EF11F03251D8A467EFC2
:1022C80011F069EF11F0A7EF11F03251020DD30EA2
:1022D800F324F66E7E0EF420F76E0900F5CF09F0B0
:1022E8000A00F5CF0AF0020E09242E6E000E0A200D
:1022F8002F6E2EC0F6FF2FC0F7FFF86A070EF7649F
:1023080003D00800F55005D0F6CFE1FFF7CFE2FF84
:10231800E7500D6E030E09242E6E000E0A202F6E54
:102328002EC0F6FF2FC0F7FFF86A070EF76403D038
:102338000800F55005D0F6CFE1FFF7CFE2FFE750F0
:102348000E6EF8EF11F0000E0C6EF8EF11F0030EA0
:102358003261B1EF11F0B3EF11F0D7EF11F0325154
:10236800020DCD0EF324F66E7E0EF420F76E0900F2
:10237800F5CF09F00A00F5CF0AF009C0F6FF0AC048
:10238800F7FFF86A070EF76403D00800F55005D088
:10239800F6CFE1FFF7CFE2FFE7502E6E2E500D6E1D
:1023A8000E6AF8EF11F0000E0C6EF8EF11F0000E47
:1023B8000C6EF8EF11F033512E6E2F6A2F50000A71
:1023C800D8B4E9EF11F0DBEF11F02E50010AD8B4C0
:1023D80057EF11F0030AD8B461EF11F0010AD8B42D
:1023E800ABEF11F0DBEF11F01200A394000E676E53
:1023F800000E656E000E6A6E6B0E0001606F0F0EA8
:10240800616F000E636F000E626F000E656F020E43
:10241800646FB7EC0DF0160E626E9F0E666E7B0E43
:10242800646E000E00016C6F6C51040D000EF324F5
:10243800D96E040EF420DA6EDE6ADE6ADE6ADD6AC0
:102448006C2B0B0E6C652BEF12F02DEF12F018EFC2
:1024580012F0608C000E636E6098609C6596000EAA
:102468000C6E000E046E000E066E000E056E65B64C
:1024780040EF12F042EF12F032EF12F0010E266E2A
:10248800010E256E000E246E000E236E000E296EBE
:10249800000E00016C6F6C51020D0F0EF324D96E03
:1024A800000EF420DA6E000EDE6E000EDD6E6C514A
:1024B800020DE70EF324D96E000EF420DA6E000E3A
:1024C800DE6E000EDD6E180E6C25D96EDA6A000E0F
:1024D800DA22000EDF6E150E6C25D96EDA6A000E50
:1024E800DA22000EDF6E6C2B020E6C657EEF12F0A6
:1024F80080EF12F04FEF12F0080E0F6E040E106E00
:10250800160E6A6E040E0401036F300E026F080E79
:10251800016F040E006F008F000E0001FE6F000EA9
:1025280001010E6F000E0F6F000E106F000E116F7D
:10253800000E226E000E2F6F1200A394000E676E1D
:10254800000E656E000E6A6E6B0E2E6E0F0E2F6EED
:10255800000E316E000E306E000E336E020E326EBB
:1025680073EC0EF0160E626E9F0E666E7B0E646E36
:10257800000E3A6E3A50040D000EF324D96E040E84
:10258800F420DA6EDE6ADE6ADE6ADD6A3A2A0B0E4B
:102598003A64D1EF12F0D3EF12F0BEEF12F0608C74
:1025A800000E636E6098609C6596000E0C6E000EBF
:1025B800046E000E066E000E056E65B6E6EF12F0AC
:1025C800E8EF12F0D8EF12F0010E266E010E256E1C
:1025D800000E246E000E236E000E296E000E3A6E59
:1025E8003A50020D0F0EF324D96E000EF420DA6E65
:1025F800000EDE6E000EDD6E3A50020DE70EF3247B
:10260800D96E000EF420DA6E000EDE6E000EDD6E5E
:10261800180E3A24D96EDA6A000EDA22000EDF6E3E
:10262800150E3A24D96EDA6A000EDA22000EDF6E31
:102638003A2A020E3A6423EF13F025EF13F0F4EF71
:1026480012F0080E0F6E040E106E160E6A6E040E4F
:102658000401036F300E026F080E016F040E006F45
:10266800008F000E0001FE6F000E01010E6F000EBC
:102678000F6F000E106F000E116F000E226E000E0D
:102688002F6F120020EE01F01F50D9262050DA22B9
:10269800DF500001616F6151055C000E0658D8B02B
:1026A80058EF13F05AEF13F05CEF13F005C061F028
:1026B8006151055E000E065A000E606F73EF13F04D
:1026C800380E6025D96EDA6A040EDA2201C0E1FFFD
:1026D80002C0E2FFDFCFE7FF014A022A602B615107
:1026E800605DD8A07AEF13F07CEF13F064EF13F07D
:1026F80005500610D8B483EF13F085EF13F0BEEF42
:1027080013F020EE01F01D50D9261E50DA22080ED3
:10271800DF6E20EE02F01D50D9261E50DA22380E48
:10272800DE6E040EDD6E1FC0D9FF20C0DAFFDFBCED
:10273800A0EF13F0A2EF13F0B0EF13F01DC0D9FF14
:102748001EC0DAFF480EDF6E1DC0D9FF1EC0DAFFBB
:10275800000EDB8EE7EF13F01DC0D9FF1EC0DAFFB5
:10276800080EDF6E1DC0D9FF1EC0DAFF000EDB8E1B
:10277800E7EF13F020EE01F01D50D9261E50DA22A3
:10278800080EDF6E20EE02F01D50D9261E50DA2208
:10279800300EDE6E040EDD6E1DC0D9FF1EC0DAFFDE
:1027A800040EDF6E1DC0D9FF1EC0DAFF000EDB8EDF
:1027B800049E2750D8A4E3EF13F0E5EF13F0E7EFFA
:1027C80013F043EC1DF012000001686F0001605126
:1027D800D8B4F1EF13F0F3EF13F001EF14F06851F0
:1027E800020D0F0EF324D96E000EF420DA6EDECF40
:1027F80069F0DDCF6AF00DEF14F06851020DE70EB5
:10280800F324D96E000EF420DA6EDECF69F0DDCF46
:102818006AF069516A11D8A414EF14F016EF14F095
:102828001CEF14F0000E606F000E616F88EF14F05B
:1028380020EE02F06951D9266A51DA2261C0DEFF22
:1028480062C0DDFF20EE01F06951D9266A51DA2213
:1028580063C0DFFF69C0D9FF6AC0DAFF400EDF1628
:1028680069C0D9FF6AC0DAFF000EDB8669C0D9FFEC
:102878006AC0DAFF000EDB8E6051D8B446EF14F060
:1028880048EF14F067EF14F06851020D0F0EF324AF
:10289800D96E000EF420DA6EDECF64F0DDCF65F07D
:1028A800040E6419666F6551676F6851020D0F0E4B
:1028B800F324D96E000EF420DA6E66C0DEFF67C01E
:1028C800DDFF84EF14F06851020DE70EF324D96E92
:1028D800000EF420DA6EDECF64F0DDCF65F0040E72
:1028E8006419666F6551676F6851020DE70EF3242E
:1028F800D96E000EF420DA6E66C0DEFF67C0DDFF19
:1029080069C060F06AC061F0120020EE01F01F504B
:10291800D9262050DA22DF502F6E2F50055C000E8A
:102928000658D8B09AEF14F09CEF14F09EEF14F00C
:1029380005C02FF02F50055E000E065A000E2E6EB1
:10294800B5EF14F0380E2E24D96EDA6A040EDA22A6
:1029580001C0E1FF02C0E2FFDFCFE7FF014A022A20
:102968002E2A2F502E5CD8A0BCEF14F0BEEF14F026
:10297800A6EF14F005500610D8B4C5EF14F0C7EF51
:1029880014F000EF15F020EE01F01D50D9261E506E
:10299800DA22080EDF6E20EE02F01D50D9261E50F6
:1029A800DA22380EDE6E040EDD6E1FC0D9FF20C09D
:1029B800DAFFDFBCE2EF14F0E4EF14F0F2EF14F00A
:1029C8001DC0D9FF1EC0DAFF480EDF6E1DC0D9FF3B
:1029D8001EC0DAFF000EDB8E29EF15F01DC0D9FFEF
:1029E8001EC0DAFF080EDF6E1DC0D9FF1EC0DAFF59
:1029F800000EDB8E29EF15F020EE01F01D50D926D0
:102A08001E50DA22080EDF6E20EE02F01D50D92685
:102A18001E50DA22300EDE6E040EDD6E1DC0D9FFA8
:102A28001EC0DAFF040EDF6E1DC0D9FF1EC0DAFF1C
:102A3800000EDB8E049E2750D8A425EF15F027EF53
:102A480015F029EF15F0BBEC1DF0120060980CBED4
:102A580030EF15F032EF15F077EF15F004AE37EFE1
:102A680015F039EF15F04BEF15F0020E2B6E2350D1
:102A7800D8A441EF15F043EF15F045EF15F0F9EC48
:102A880020F0000E256E000E266EC9EF15F020EE20
:102A980001F01D50D9261E50DA22080EDF6E20EEF6
:102AA80002F01D50D9261E50DA22300EDE6E040EBA
:102AB800DD6E1DC0D9FF1EC0DAFF0C0EDF6E1DC013
:102AC800D9FF1EC0DAFF000EDB8E0FC0D9FF10C081
:102AD800DAFF040EDF6E0FC0D9FF10C0DAFF000E58
:102AE800DB8EC9EF15F0040130AF7DEF15F07FEFF5
:102AF80015F09BEF15F0010E2B6E2450D8A487EF2C
:102B080015F089EF15F08BEF15F0F9EC20F0000EB9
:102B1800256E000E266E2750D8A495EF15F097EF76
:102B280015F0C9EF15F043EC1DF0C9EF15F0020ED2
:102B38002B6E20EE01F01D50D9261E50DA22080E09
:102B4800DF6E20EE02F01D50D9261E50DA22300E1C
:102B5800DE6E040EDD6E1DC0D9FF1EC0DAFF040E46
:102B6800DF6E1DC0D9FF1EC0DAFF000EDB8E000E1F
:102B7800256E000E266E2750D8A4C5EF15F0C7EFB6
:102B880015F0C9EF15F097EF15F0120060980CBE1C
:102B9800D0EF15F0D2EF15F017EF16F004AED7EF1F
:102BA80015F0D9EF15F0EBEF15F0020E2B6E235050
:102BB800D8A4E1EF15F0E3EF15F0E5EF15F04FECD1
:102BC80021F0000E256E000E266E69EF16F020EE3D
:102BD80001F01D50D9261E50DA22080EDF6E20EEB5
:102BE80002F01D50D9261E50DA22300EDE6E040E79
:102BF800DD6E1DC0D9FF1EC0DAFF0C0EDF6E1DC0D2
:102C0800D9FF1EC0DAFF000EDB8E0FC0D9FF10C03F
:102C1800DAFF040EDF6E0FC0D9FF10C0DAFF000E16
:102C2800DB8E69EF16F0040130AF1DEF16F01FEFD1
:102C380016F03BEF16F0010E2B6E2450D8A427EFA8
:102C480016F029EF16F02BEF16F04FEC21F0000EDE
:102C5800256E000E266E2750D8A435EF16F037EFF4
:102C680016F069EF16F0BBEC1DF069EF16F0020ED6
:102C78002B6E20EE01F01D50D9261E50DA22080EC8
:102C8800DF6E20EE02F01D50D9261E50DA22300EDB
:102C9800DE6E040EDD6E1DC0D9FF1EC0DAFF040E05
:102CA800DF6E1DC0D9FF1EC0DAFF000EDB8E000EDE
:102CB800256E000E266E2750D8A465EF16F067EF34
:102CC80016F069EF16F037EF16F01200366E2E5038
:102CD800D8B471EF16F073EF16F081EF16F0365096
:102CE800020D0F0EF324D96E000EF420DA6EDECF3B
:102CF80037F0DDCF38F08DEF16F03650020DE70EC5
:102D0800F324D96E000EF420DA6EDECF37F0DDCF73
:102D180038F037503810D8A494EF16F096EF16F024
:102D28009CEF16F0000E2E6E000E2F6E08EF17F0B7
:102D380020EE02F03750D9263850DA222FC0DEFFB5
:102D480030C0DDFF20EE01F03750D9263850DA22A6
:102D580031C0DFFF37C0D9FF38C0DAFF400EDF16B9
:102D680037C0D9FF38C0DAFF000EDB8637C0D9FF7D
:102D780038C0DAFF000EDB8E2E50D8B4C6EF16F03E
:102D8800C8EF16F0E7EF16F03650020D0F0EF324D9
:102D9800D96E000EF420DA6EDECF32F0DDCF33F0DC
:102DA800040E3218346E3350356E3650020D0F0E45
:102DB800F324D96E000EF420DA6E34C0DEFF35C07D
:102DC800DDFF04EF17F03650020DE70EF324D96E3D
:102DD800000EF420DA6EDECF32F0DDCF33F0040ED1
:102DE8003218346E3350356E3650020DE70EF32428
:102DF800D96E000EF420DA6E34C0DEFF35C0DDFF78
:102E080037C02EF038C02FF0120004013039E832F4
:102E1800030B0009D8B413EF17F015EF17F060EFA4
:102E280017F09AEF17F00C8E080E01012F6F9AEF2A
:102E380017F02EEC0FF09AEF17F051EC1CF09AEF08
:102E480017F0FE0E096E000E0A6E0C80010E0D6E54
:102E58000C8E9AEF17F03AEC19F09AEF17F07EEC17
:102E680002F09AEF17F0FB0E04013425096E0A6A86
:102E7800000E0A220C80010E0D6E0C8E9AEF17F0D0
:102E88000C8EFB0E04013425D96EDA6A000EDA22A4
:102E980032C4DFFF9AEF17F0000E6D6F020E6C6FF1
:102EA800000E6E6F000E6F6F000E716F000E706F68
:102EB800D6EC22F09AEF17F0315100017B6F7C6B52
:102EC8007C51000AD8B46BEF17F09AEF17F07B51DA
:102ED800000AD8B42FEF17F0010AD8B433EF17F06F
:102EE800020AD8B433EF17F0060AD8B417EF17F070
:102EF800030AD8B41DEF17F0010AD8B450EF17F041
:102F08000F0AD8B425EF17F0010AD8B421EF17F04B
:102F1800030AD8B437EF17F0010AD8B444EF17F012
:102F2800070AD8B49AEF17F09AEF17F012000401C5
:102F38003039E832030B0009D8B4A5EF17F0A7EF32
:102F480017F0F0EF17F029EF18F00C8E080E0101BA
:102F58002F6F29EF18F049EC11F029EF18F033EC36
:102F68001EF029EF18F0FE0E096E000E0A6E0C8096
:102F7800010E0D6E0C8E29EF18F04FEC1BF029EFA7
:102F880018F03AEC04F029EF18F0FB0E3425096E1E
:102F98000A6A000E0A220C80010E0D6E0C8E29EFB3
:102FA80018F00C8EFB0E3425D96EDA6A000EDA2280
:102FB80032C4DFFF29EF18F0000E3B6E020E3A6EA6
:102FC800000E3C6E000E3D6E000E3F6E000E3E6E13
:102FD8001BEC23F029EF18F03151496E4A6A4A5028
:102FE800000AD8B4FAEF17F029EF18F04950000A90
:102FF800D8B4C1EF17F0010AD8B4C5EF17F0020A28
:10300800D8B4C5EF17F0060AD8B4A9EF17F0030A29
:10301800D8B4AFEF17F0010AD8B4E0EF17F00F0AF1
:10302800D8B4B7EF17F0010AD8B4B3EF17F0030A12
:10303800D8B4C9EF17F0010AD8B4D5EF17F0070ACA
:10304800D8B429EF18F029EF18F01200080E000183
:10305800606F0E5007E1080E0D5CD8B036EF18F01F
:1030680038EF18F050EF18F00DC060F02C50D8A4CD
:1030780040EF18F042EF18F046EF18F0010E2C6EF2
:1030880050EF18F02C04D8A44CEF18F04EEF18F0BD
:1030980050EF18F0020E2C6E60510D5E000E0E5AA5
:1030A80020EE01F00F50D9261050DA2260C0DFFF61
:1030B800380EF36F040EF46F0CB065EF18F067EF7D
:1030C80018F0A9EF18F084EF18F009C0F6FF0AC04D
:1030D800F7FFF86AF3C0D9FFF4C0DAFF070EF76408
:1030E80003D00800F55005D0F6CFE1FFF7CFE2FF97
:1030F800E750DF6E094A0A2A0001F34BF42B6007F8
:103108006051D8A48AEF18F08CEF18F069EF18F026
:10311800B1EF18F009C0F6FF0AC0F7FFF86AF3C06C
:10312800D9FFF4C0DAFF070EF76403D00800F550A2
:1031380005D0F6CFE1FFF7CFE2FFE750DF6E094A8F
:103148000A2A0001F34BF42B60076051D8A4AFEFB3
:1031580018F0B1EF18F08EEF18F01200080E2E6E6E
:103168000E5007E1080E0D5CD8B0BDEF18F0BFEFA8
:1031780018F0D7EF18F00DC02EF02C50D8A4C7EFD8
:1031880018F0C9EF18F0CDEF18F0010E2C6ED7EF3C
:1031980018F02C04D8A4D3EF18F0D5EF18F0D7EF17
:1031A80018F0020E2C6E2E500D5E000E0E5A20EEF8
:1031B80001F00F50D9261050DA222EC0DFFF380E4A
:1031C8000001F36F040EF46F0CB0EDEF18F0EFEFA1
:1031D80018F031EF19F00CEF19F009C0F6FF0AC02A
:1031E800F7FFF86AF3C0D9FFF4C0DAFF070EF764F7
:1031F80003D00800F55005D0F6CFE1FFF7CFE2FF86
:10320800E750DF6E094A0A2A0001F34BF42B2E0619
:103218002E50D8A412EF19F014EF19F0F1EF18F0AE
:1032280039EF19F009C0F6FF0AC0F7FFF86AF3C0D2
:10323800D9FFF4C0DAFF070EF76403D00800F55091
:1032480005D0F6CFE1FFF7CFE2FFE750DF6E094A7E
:103258000A2A0001F34BF42B2E062E50D8A437EF80
:1032680019F039EF19F016EF19F01200000E0401E9
:10327800386F000E396F97EF19F00C8E2A04D8A416
:1032880048EF19F04AEF19F0B2EF19F0040138834A
:10329800B2EF19F00C8EB2EF19F00C8E040134BFA6
:1032A80058EF19F05AEF19F06CEF19F034510F0B71
:1032B8000001606F6051020DE70EF324D96E000E15
:1032C800F420DA6EDECF62F0DDCF63F07CEF19F028
:1032D80034510F0B0001606F6051020D0F0EF32483
:1032E800D96E000EF420DA6EDECF62F0DDCF63F027
:1032F80062C0D9FF63C0DAFFDFAE85EF19F087EF50
:1033080019F0B2EF19F062C0D9FF63C0DAFFDFA489
:1033180090EF19F092EF19F0B2EF19F0010E0401D5
:10332800386FB2EF19F030511F0B0001606F616BFD
:103338006151000AD8B4A3EF19F0B2EF19F0605147
:10334800000AD8B441EF19F0010AD8B44EEF19F0C9
:10335800030AD8B451EF19F0B2EF19F00CAEB7EF79
:1033680019F0B9EF19F0C0EF19F0380E096E040E14
:103378000A6E0C80020E0D6E12000FC0D9FF10C02D
:10338800DAFF000EDFBC010E0001616F040E0F189A
:103398000F6E1050106E080E01012F19D8A4D7EF28
:1033A80019F0D9EF19F0EDEF19F0040132517F0B44
:1033B800636E6350D8B4E3EF19F0E5EF19F0EAEF64
:1033C80019F0100E01012F6FEDEF19F0040E010135
:1033D8002F6F2B04D8A4F3EF19F0F5EF19F03DEF98
:1033E8001AF020EE02F00F50D9261050DA22380ECB
:1033F800DE6E040EDD6E2AEC18F0020E2C18D8A42E
:1034080008EF1AF00AEF1AF018EF1AF00FC0D9FFF8
:1034180010C0DAFF040EDF6E0FC0D9FF10C0DAFF4C
:10342800000EDB8E47EF1AF000016151D8A41FEFA0
:103438001AF021EF1AF02FEF1AF00FC0D9FF10C0C1
:10344800DAFF480EDF6E0FC0D9FF10C0DAFF000E9A
:10345800DB8E47EF1AF00FC0D9FF10C0DAFF080E55
:10346800DF6E0FC0D9FF10C0DAFF000EDB8E47EF0A
:103478001AF004AE42EF1AF044EF1AF045EF1AF0D2
:10348800049E000E2B6E12000FC0D9FF10C0DAFF89
:10349800000EDFBC010E2F6E040E0F180F6E1050B9
:1034A800106E080E01012F19D8A45DEF1AF05FEF16
:1034B8001AF073EF1AF0040132517F0B636E6350F8
:1034C800D8B469EF1AF06BEF1AF070EF1AF0100E1B
:1034D80001012F6F73EF1AF0040E01012F6F2B04F7
:1034E800D8A479EF1AF07BEF1AF0C2EF1AF020EEA9
:1034F80002F00F50D9261050DA22380EDE6E040E74
:10350800DD6EB2EC18F0020E2C18D8A48EEF1AF06B
:1035180090EF1AF09EEF1AF00FC0D9FF10C0DAFF33
:10352800040EDF6E0FC0D9FF10C0DAFF000EDB8E6D
:10353800CCEF1AF02F50D8A4A4EF1AF0A6EF1AF087
:10354800B4EF1AF00FC0D9FF10C0DAFF480EDF6ED3
:103558000FC0D9FF10C0DAFF000EDB8ECCEF1AF0D7
:103568000FC0D9FF10C0DAFF080EDF6E0FC0D9FFF9
:1035780010C0DAFF000EDB8ECCEF1AF004AEC7EFF6
:103588001AF0C9EF1AF0CAEF1AF0049E000E2B6E5B
:103598001200040130511F0BE806D8B4D6EF1AF018
:1035A800D8EF1AF0DAEF1AF04EEF1BF03039E832A4
:1035B800030BE806D8B4E3EF1AF0E5EF1AF0E7EFEB
:1035C8001AF04EEF1BF03451D8B4EDEF1AF0EFEFCC
:1035D8001AF02CEF1BF03405D8B4F5EF1AF0F7EF1A
:1035E8001AF02CEF1BF04EEF1BF0850E096E010E42
:1035F8000A6E000E0E6E080E0D6E0C800C8E4EEFCD
:103608001BF0850E096E010E0A6E0C8E4EEF1BF034
:1036180036C405F037C406F08D0E016E010E026E39
:10362800000E076E000E086E048E4EEF1BF08D0E16
:10363800096E010E0A6E000E0E6E070E0D6EC10E9B
:103648000C6E4EEF1BF032C42CF10C8E4EEF1BF0BB
:1036580031510001606F616B6151000AD8B437EFD6
:103668001BF04EEF1BF06051000AD8B4F9EF1AF0C6
:10367800010AD8B405EF1BF0210AD8B40CEF1BF0EF
:10368800010AD8B41BEF1BF0030AD8B427EF1BF0CC
:103698004EEF1BF01200000E0401386F000E396F58
:1036A800A7EF1BF00C8E2A04D8A45DEF1BF05FEF88
:1036B8001BF0C1EF1BF03883C1EF1BF00C8EC1EF7C
:1036C8001BF00C8E34BF6BEF1BF06DEF1BF07EEF21
:1036D8001BF034510F0B2E6E2E50020DE70EF32403
:1036E800D96E000EF420DA6EDECF30F0DDCF31F087
:1036F8008DEF1BF034510F0B2E6E2E50020D0F0E56
:10370800F324D96E000EF420DA6EDECF30F0DDCF70
:1037180031F030C0D9FF31C0DAFFDFAE96EF1BF0D1
:1037280098EF1BF0C1EF1BF030C0D9FF31C0DAFFB2
:10373800DFA4A1EF1BF0A3EF1BF0C1EF1BF0010EFC
:10374800386FC1EF1BF030511F0B2E6E2F6A2F50B0
:10375800000AD8B4B2EF1BF0C1EF1BF02E50000ADC
:10376800D8B456EF1BF0010AD8B462EF1BF0030A75
:10377800D8B465EF1BF0C1EF1BF00CAEC6EF1BF021
:10378800C8EF1BF0CFEF1BF0380E096E040E0A6E5F
:103798000C80020E0D6E1200040130511F0BE8065A
:1037A800D8B4D9EF1BF0DBEF1BF0DDEF1BF050EFC7
:1037B8001CF03039E832030BE806D8B4E6EF1BF00A
:1037C800E8EF1BF0EAEF1BF050EF1CF03451D8B4CF
:1037D800F0EF1BF0F2EF1BF02FEF1CF03405D8B41C
:1037E800F8EF1BF0FAEF1BF02FEF1CF050EF1CF076
:1037F800850E096E010E0A6E000E0E6E080E0D6E15
:103808000C800C8E50EF1CF0850E096E010E0A6EAE
:103818000C8E50EF1CF036C405F037C406F08D0E40
:10382800016E010E026E000E076E000E086E048E09
:1038380050EF1CF08D0E096E010E0A6E000E0E6E12
:10384800070E0D6EC10E0C6E50EF1CF032C42CF139
:103858000C8E50EF1CF031512E6E2F6A2F50000A3B
:10386800D8B439EF1CF050EF1CF02E50000AD8B431
:10387800FCEF1BF0010AD8B408EF1CF0210AD8B4F9
:103888000FEF1CF0010AD8B41EEF1CF0030AD8B4DD
:103898002AEF1CF050EF1CF012000C8E6B0E00018A
:1038A800606F0F0E616F000E636F000E626F000E87
:1038B800656F020E646FB7EC0DF0000E0001606FCB
:1038C800040E616F000E636F000E626F000E656F6D
:1038D800300E646FB7EC0DF0608C000E0001746F51
:1038E800180E7425D96EDA6A000EDA22000EDF6E21
:1038F800150E7425D96EDA6A000EDA22000EDF6E14
:10390800742B020E74658BEF1CF08DEF1CF074EFB6
:103918001CF0FB0E606F000E616F000E636F000EEF
:10392800626F000E656F020E646FB7EC0DF0609C5D
:10393800080E0F6E040E106E000E1F6E040E206E21
:103948001FC01DF020C01EF032C4FEF00001FE5161
:10395800D8A4B1EF1CF0B3EF1CF0B8EF1CF0100EB8
:1039680001012F6FC9EF1CF0000E6D6F010E6C6F17
:10397800FE0E6E6F000E6F6F000E716F010E706F8E
:10398800D6EC22F0200E01012F6F120020EE70F00D
:10399800070EDE6AE806FDE20001685169116A1146
:1039A8006B116C116D116E116F11D8B4DEEF1CF034
:1039B800E0EF1CF032EF1DF0010E786FEEEF1CF017
:1039C800D890683769376A376B376C376D376E3719
:1039D8006F37782B6FAFF3EF1CF0F5EF1CF0E4EFC7
:1039E8001CF0D89070377137723773377437753762
:1039F800763777376851605D695161596A51625904
:103A08006B5163596C5164596D5165596E516659C2
:103A18006F516759D8A013EF1DF015EF1DF026EF71
:103A28001DF06851605F6951615B6A51625B6B515F
:103A3800635B6C51645B6D51655B6E51665B6F5186
:103A4800675B7081D8906F336E336D336C336B3333
:103A58006A3369336833782FF5EF1CF070C060F073
:103A680071C061F072C062F073C063F074C064F03A
:103A780075C065F076C066F077C067F01200265012
:103A8800D8A449EF1DF04BEF1DF0BAEF1DF0010E61
:103A9800266E2550D8A453EF1DF055EF1DF0BAEF50
:103AA8001DF0010E256E020E2B18D8A45EEF1DF036
:103AB80060EF1DF076EF1DF020EE01F00F50D926D3
:103AC8001050DA22000EDF6E0FC0D9FF10C0DAFFE7
:103AD800480EDF6E0FC0D9FF10C0DAFF000EDB8E74
:103AE800BAEF1DF02B04D8A47CEF1DF07EEF1DF07B
:103AF800BAEF1DF0000E286E20EE01F01F50D926F7
:103B08002050DA22080EDF6E20EE02F01F50D92670
:103B18002050DA22300EDE6E040EDD6E1FC0D9FF93
:103B280020C0DAFF040EDF6E1FC0D9FF20C0DAFF05
:103B3800000EDB8E010E286E20EE01F01D50D926F6
:103B48001E50DA22080EDF6E20EE02F01D50D92634
:103B58001E50DA22300EDE6E040EDD6E1DC0D9FF57
:103B68001EC0DAFF800EDF6EBAEF1DF0120026507D
:103B7800D8A4C1EF1DF0C3EF1DF032EF1EF0010E07
:103B8800266E2550D8A4CBEF1DF0CDEF1DF032EFF7
:103B98001EF0010E256E020E2B18D8A4D6EF1DF0CC
:103BA800D8EF1DF0EEEF1DF020EE01F00F50D926F2
:103BB8001050DA22000EDF6E0FC0D9FF10C0DAFFF6
:103BC800480EDF6E0FC0D9FF10C0DAFF000EDB8E83
:103BD80032EF1EF02B04D8A4F4EF1DF0F6EF1DF021
:103BE80032EF1EF0000E286E20EE01F01F50D9268D
:103BF8002050DA22080EDF6E20EE02F01F50D92680
:103C08002050DA22300EDE6E040EDD6E1FC0D9FFA2
:103C180020C0DAFF040EDF6E1FC0D9FF20C0DAFF14
:103C2800000EDB8E010E286E20EE01F01D50D92605
:103C38001E50DA22080EDF6E20EE02F01D50D92643
:103C48001E50DA22300EDE6E040EDD6E1DC0D9FF66
:103C58001EC0DAFF800EDF6E32EF1EF012000C8EEF
:103C68006B0E2E6E0F0E2F6E000E316E000E306E24
:103C7800000E336E020E326E73EC0EF0000E2E6ED6
:103C8800040E2F6E000E316E000E306E000E336E75
:103C9800300E326E73EC0EF0608C000E426E180E11
:103CA8004224D96EDA6A000EDA22000EDF6E150E93
:103CB8004224D96EDA6A000EDA22000EDF6E422A3A
:103CC800020E42646AEF1EF06CEF1EF053EF1EF016
:103CD800FB0E2E6E000E2F6E000E316E000E306E33
:103CE800000E336E020E326E73EC0EF0609C080EFE
:103CF8000F6E040E106E000E1F6E040E206E1FC095
:103D08001DF020C01EF032C4FEF00001FE51D8A400
:103D180090EF1EF092EF1EF097EF1EF0100E0101CB
:103D28002F6FA8EF1EF0000E3B6E010E3A6EFE0ECE
:103D38003C6E000E3D6E000E3F6E010E3E6E1BEC9B
:103D480023F0200E01012F6F120060C067F061C0E0
:103D580068F062C069F063C06AF000016407D8A027
:103D68006507642906E16529D8A4BDEF1EF0BFEFF9
:103D78001EF0CCEF1EF0000E616F000E606F18EFA2
:103D88001FF0674B682B694B6A2B6407D8A065073F
:103D980067C0F6FF68C0F7FF0800F5500009D8B4FF
:103DA800D8EF1EF0DAEF1EF006EF1FF069C0F6FF3D
:103DB8006AC0F7FF0800F5500009D8B4E6EF1EF016
:103DC800E8EF1EF006EF1FF064516511D8B4EFEF6D
:103DD8001EF0F1EF1EF006EF1FF067C0F6FF68C097
:103DE800F7FF0800F5CF66F069C0F6FF6AC0F7FF75
:103DF8000800F5506619D8B404EF1FF006EF1FF05D
:103E0800C5EF1EF067C0F6FF68C0F7FF0800F5CFE2
:103E180066F069C0F6FF6AC0F7FF0800F550665DF6
:103E2800606F616BD8A061071200000168516911C9
:103E38006A116B116C116D116E116F11D8B427EFE7
:103E48001FF029EF1FF071EF1FF0010E706F37EFB1
:103E58001FF0D890683769376A376B376C376D371A
:103E68006E376F37702B6FAF3CEF1FF03EEF1FF0D0
:103E78002DEF1FF06851605D695161596A516259AF
:103E88006B5163596C5164596D5165596E5166593E
:103E98006F516759D8A053EF1FF055EF1FF065EF2A
:103EA8001FF06851605F6951615B6A51625B6B51D9
:103EB800635B6C51645B6D51655B6E51665B6F5102
:103EC800675BD8906F336E336D336C336B336A3303
:103ED80069336833702F3EEF1FF060C060F061C037
:103EE80061F062C062F063C063F064C064F065C0F2
:103EF80065F066C066F067C067F012000001EFA1C8
:103F080088EF1FF08AEF1FF094EF1FF079C070F070
:103F18007AC071F077C072F078C073F005EC26F0C3
:103F280000017CBF9AEF1FF09CEF1FF0A2EF1FF07B
:103F38007BC080F07CC081F0A6EF1FF0000E816F7F
:103F4800000E806F000E7F6F000E7E6FB9EF1FF0BE
:103F5800000E686F200E676F77C069F078C06AF04E
:103F6800FBEC21F000017E4B7F2B80517E5D7F5161
:103F7800800A7D6F8151800A7D59D8A0C6EF1FF055
:103F8800C8EF1FF0ACEF1FF0EFB1CDEF1FF0CFEF90
:103F98001FF0D9EF1FF079C070F07AC071F077C0C8
:103FA80072F078C073F005EC26F079C060F07AC042
:103FB80061F08EEC25F0000180516025776F81510A
:103FC8006121786F12002D0E0001F76FFDC07DF0A2
:103FD800FD0E7D17D8A4F3EF1FF0F5EF1FF037EFB4
:103FE80020F0FDC07DF0D8907D333F0E7D177D51C8
:103FF800040D000EF3241F6E040EF420206E1FC063
:104008001DF020C01EF0040E1D181D6E1E501E6EE1
:104018001FC0D9FF20C0DAFFDF30E8320F0B0D0ACE
:10402800D8A419EF20F01BEF20F033EF20F0300E6A
:10403800606F040E616F20EE02F01F50D9262050E9
:10404800DA22DECF62F0DDCF63F0000E656F080E76
:10405800646F65EC25F047EC22F043EF20F05FEC4D
:1040680023F043EF20F0FD51FD0B040AD8A43FEFE5
:1040780020F041EF20F043EF20F0C1EC19F01200DE
:104088002D0E0001F76FFDC04BF0FD0E4B16D8A4A6
:1040980050EF20F052EF20F094EF20F0FDC04BF0ED
:1040A800D8904B323F0E4B164B50040D000EF324A4
:1040B8001F6E040EF420206E1FC01DF020C01EF0DD
:1040C800040E1D181D6E1E501E6E1FC0D9FF20C085
:1040D800DAFFDF30E8320F0B0D0AD8A476EF20F0B4
:1040E80078EF20F090EF20F0300E2E6E040E2F6E39
:1040F80020EE02F01F50D9262050DA22DECF30F011
:10410800DDCF31F0000E336E080E326EB7EC25F0BD
:104118008FEC22F0A0EF20F099EC23F0A0EF20F034
:10412800FD51FD0B040AD8A49CEF20F09EEF20F06F
:10413800A0EF20F048EC1AF012000001656F000EA5
:104148000001666F040E676F6051616F626BD890F3
:10415800613762376551636F646BD8906337643732
:10416800D890633764376151632762516423D890CC
:1041780063376437D890633764376351662764516F
:10418800672366C0D9FF67C0DAFFDF9E6051D8A4F5
:10419800D0EF20F0D2EF20F0E0EF20F06551020DD3
:1041A800E70EF324D96E000EF420DA6E66C0DEFF47
:1041B80067C0DDFFECEF20F06551020D0F0EF32410
:1041C800D96E000EF420DA6E66C0DEFF67C0DDFF30
:1041D80066C0D9FF67C0DAFFDF9C20EE04F06651A5
:1041E800D9266751DA22DF8C1200000E246E000EE9
:1041F800236E020E2B18D8A404EF21F006EF21F04D
:1042080026EF21F020EE01F01D50D9261E50DA22AB
:10421800080EDF6E20EE02F01D50D9261E50DA225D
:10422800380EDE6E040EDD6E1DC0D9FF1EC0DAFF2B
:10423800480EDF6E1DC0D9FF1EC0DAFF000EDB8EF0
:104248004EEF21F00D500401365D0E503759D8B0AD
:1042580030EF21F032EF21F036EF21F036C40DF0C7
:1042680037C40EF02AEC18F020EE02F00F50D926D1
:104278001050DA22380EDE6E040EDD6E0FC0D9FF44
:1042880010C0DAFF480EDF6E0FC0D9FF10C0DAFF8A
:10429800000EDB8E1200000E246E000E236E020E3E
:1042A8002B18D8A45AEF21F05CEF21F07CEF21F015
:1042B80020EE01F01D50D9261E50DA22080EDF6EBE
:1042C80020EE02F01D50D9261E50DA22380EDE6E7E
:1042D800040EDD6E1DC0D9FF1EC0DAFF480EDF6E6A
:1042E8001DC0D9FF1EC0DAFF000EDB8EA4EF21F03F
:1042F8000D500401365D0E503759D8B086EF21F0C5
:1043080088EF21F08CEF21F036C40DF037C40EF0A1
:10431800B2EC18F020EE02F00F50D9261050DA2235
:10432800380EDE6E040EDD6E0FC0D9FF10C0DAFF46
:10433800480EDF6E0FC0D9FF10C0DAFF000EDB8E0B
:104348001200336E000E346E040E356E2E502F6E32
:10435800306AD8902F3630363350316E326AD89062
:1043680031363236D890313632362F5031263050E9
:104378003222D89031363236D890313632363150F2
:1043880034263250352234C0D9FF35C0DAFFDF9EDB
:104398002E50D8A4D2EF21F0D4EF21F0E2EF21F093
:1043A8003350020DE70EF324D96E000EF420DA6EB6
:1043B80034C0DEFF35C0DDFFEEEF21F03350020DD3
:1043C8000F0EF324D96E000EF420DA6E34C0DEFF2F
:1043D80035C0DDFF34C0D9FF35C0DAFFDF9C20EEE1
:1043E80004F03450D9263550DA22DF8C120000014F
:1043F80069516A11D8B403EF22F005EF22F00EEFED
:1044080022F069516A11D8A40CEF22F00EEF22F0C5
:1044180013EF22F0675184EC27F046EF22F020EEEC
:1044280004F06951D9266A51DA22DE50DE10D8B478
:1044380020EF22F022EF22F03DEF22F020EE04F0F0
:104448006951D9266A51DA2210EE02F06951E12643
:104458006A51E222DE50E65CE650800A6F6FDE5059
:10446800800A6F59D8B03BEF22F03DEF22F046EFBB
:1044780022F020EE02F06951D9266A51DA22DE2AAA
:10448800000EDD221200000E2C6E000E276E000EAC
:10449800246E000E236E000E286E000E2B6E0FC0C9
:1044A800D9FF10C0DAFF7F0EDF16040E0F180F6E4B
:1044B8001050106E0FC0D9FF10C0DAFF7F0EDF1644
:1044C800040E0F180F6E1050106E1DC0D9FF1EC0BD
:1044D800DAFF7F0EDF16000E0C6E000E0E6E000E59
:1044E8000D6E000E046E000E066E000E056E09ECD1
:1044F80017F0000E00016D6F030E6C6F000E6E6FEB
:10450800000E6F6F000E716F000E706FD6EC22F008
:104518002AEC15F01200000E2C6E000E276E000E0D
:10452800246E000E236E000E286E000E2B6E0FC038
:10453800D9FF10C0DAFF7F0EDF16040E0F180F6EBA
:104548001050106E0FC0D9FF10C0DAFF7F0EDF16B3
:10455800040E0F180F6E1050106E1DC0D9FF1EC02C
:10456800DAFF7F0EDF16000E0C6E000E0E6E000EC8
:104578000D6E000E046E000E066E000E056E9BECAE
:1045880017F0000E3B6E030E3A6E000E3C6E000EE6
:104598003D6E000E3F6E000E3E6E1BEC23F0CAEC23
:1045A80015F01200E0EF22F00BEC24F01AEF23F0E4
:1045B800CDEC1AF01AEF23F06CC072F06DC073F0F6
:1045C80000017351000AD8B4F0EF22F07F0AD8B482
:1045D80013EF23F01AEF23F07251010AD8B4D8EF81
:1045E80022F0030AD8B41AEF23F0010AD8B4DCEF9A
:1045F80022F0060AD8B41AEF23F0770AD8B41AEFD3
:1046080023F0010AD8B41AEF23F0070AD8B41AEF36
:1046180023F0010AD8B41AEF23F01AEF23F07251ED
:10462800FF0AD8B41AEF23F01AEF23F0120025EF8F
:1046380023F0A9EC24F05EEF23F0D0EC1BF05EEF42
:1046480023F03AC040F03BC041F04150000AD8B4D2
:1046580034EF23F07F0AD8B457EF23F05EEF23F04E
:104668004050010AD8B41DEF23F0030AD8B45EEF16
:1046780023F0010AD8B421EF23F0060AD8B45EEF7C
:1046880023F0770AD8B45EEF23F0010AD8B45EEFBE
:1046980023F0070AD8B45EEF23F0010AD8B45EEF1E
:1046A80023F05EEF23F04050FF0AD8B45EEF23F00A
:1046B8005EEF23F01200020E2B18D8A466EF23F049
:1046C80068EF23F06CEF23F046EC13F098EF23F03B
:1046D800000E2B6E2850D8A474EF23F076EF23F049
:1046E80096EF23F020EE01F01D50D9261E50DA2255
:1046F800080EDF6E20EE02F01D50D9261E50DA2279
:10470800300EDE6E040EDD6E1DC0D9FF1EC0DAFF4E
:104718000C0EDF6E1DC0D9FF1EC0DAFF000EDB8E47
:1047280098EF23F0000E286E1200020E2B18D8A462
:10473800A0EF23F0A2EF23F0A6EF23F089EC14F00A
:10474800D2EF23F0000E2B6E2850D8A4AEEF23F042
:10475800B0EF23F0D0EF23F020EE01F01D50D92662
:104768001E50DA22080EDF6E20EE02F01D50D92608
:104778001E50DA22300EDE6E040EDD6E1DC0D9FF2B
:104788001EC0DAFF0C0EDF6E1DC0D9FF1EC0DAFF97
:10479800000EDB8ED2EF23F0000E286E1200A394D9
:1047A8002D50D8B4DAEF23F0DCEF23F0DFEF23F05D
:1047B800A3840AEF24F0000E0001646F60C062F069
:1047C80061C063F0642B6429D8A4EDEF23F0EFEF08
:1047D80023F0F1EF23F0FFEF23F062C0D9FF63C0AD
:1047E800DAFF624B632BDF50D8A4FDEF23F0FFEF15
:1047F80023F0E6EF23F060C025F161C026F164C024
:10480800F6F0010EF56F010E2D6EA3841200000E56
:1048180001018D6F4B0E8E6F000E8F6F000E906F23
:10482800000E916F000E926F080E936F000E216EAE
:104838001A0E0001686F010E3BEC25F01E0E0001F8
:10484800686F020E3BEC25F0000E0001606F400E11
:10485800616F050E626F400E636F020EE8EC13F095
:1048680060C01BF061C01CF0000E0001F16F000E6B
:10487800F26F000E2D6E1200CCC0D0F0CDC0D1F07A
:10488800000E0101296F000E286F62EF24F0CAC0E4
:10489800A6F0CBC0A7F0D00E0001A86F000EA96F3C
:1048A800CEC0AAF0CFC0ABF055EC00F00001A65185
:1048B800010128270001A75101012923D0C0F6FFD3
:1048C800D1C0F7FF0800F5500009D8A46EEF24F016
:1048D80070EF24F04BEF24F028C1CAF029C1CBF0C7
:1048E8001200E3EC27F0E70E0001DA6F7F0EDB6FB2
:1048F800000EDD6F010EDC6FE80EDE6F030EDF6F5A
:10490800000EE06F000EE16F7E0EE26F4F0EE36F58
:1049180097EC10F0EE0E0001DA6F7F0EDB6F000EE1
:10492800DD6F020EDC6F960EDE6F000EDF6F000E7D
:10493800E06F000EE16FA20EE26F4F0EE36F97EC8F
:1049480010F0E2EC05F053EF00F0000E01018D6F5E
:104958004B0E8E6F000E8F6F000E906F000E916FD2
:10496800000E926F080E936F000E216E1A0E366EAF
:10497800010EDFEC25F01E0E366E020EDFEC25F080
:10498800000E2E6E400E2F6E050E306E400E316EEC
:10499800020E6AEC16F02EC01BF02FC01CF0000EA1
:1049A8000001F16F000EF26F000E2D6E12006AA06A
:1049B800E0EF24F0E2EF24F009EF25F01FC0D9FF63
:1049C80020C0DAFF800EDE18D8A4EDEF24F0EFEF58
:1049D80024F008EF25F00FC0D9FF10C0DAFF840ECD
:1049E800DE18D8A4FAEF24F0FCEF24F008EF25F045
:1049F8001FC0D9FF20C0DAFF0C0EDF6E1FC0D9FF21
:104A080020C0DAFF000EDB8E6A90659A12006AA059
:104A180010EF25F012EF25F039EF25F01FC0D9FF70
:104A280020C0DAFF800EDE18D8A41DEF25F01FEF96
:104A380025F038EF25F00FC0D9FF10C0DAFF840E3B
:104A4800DE18D8A42AEF25F02CEF25F038EF25F052
:104A58001FC0D9FF20C0DAFF0C0EDF6E1FC0D9FFC0
:104A680020C0DAFF000EDB8E6A90659A1200000102
:104A78006B6F000168A543EF25F045EF25F04AEF7D
:104A880025F0000E606F6B51A1EC20F0000168A3C7
:104A980050EF25F052EF25F057EF25F0010E606F2B
:104AA8006B51A1EC20F06A0E00016B25696F6A6BEF
:104AB8000F0E6A2369C0D9FF6AC0DAFF68C0DFFF3A
:104AC800120062C069F063C06AF060C067F061C03C
:104AD80068F07FEF25F069C0D9FF6AC0DAFFDF50C0
:104AE800666F694B6A2B67C0D9FF68C0DAFF66C07A
:104AF800DFFF674B682B00016407D8A065076429AE
:104B080006E16529D8A48BEF25F08DEF25F06FEF2E
:104B180025F0120060C062F061C063F097EF25F0E5
:104B28000001604B612B60C0F6FF61C0F7FFF86AB7
:104B3800070EF76403D00800F55005D0F6CFE1FF63
:104B4800F7CFE2FFE7500009D8A4ADEF25F0AFEFAB
:104B580025F094EF25F000016251605D606F6351AC
:104B68006159616F120030C036F031C037F02EC085
:104B780034F02FC035F0D1EF25F036C0D9FF37C05B
:104B8800DAFFDF50386E364A372A34C0D9FF35C0CD
:104B9800DAFF38C0DFFF344A352A3206D8A0330698
:104BA800322806E13328D8A4DCEF25F0DEEF25F023
:104BB800C1EF25F01200396E36A4E5EF25F0E7EFD6
:104BC80025F0ECEF25F0000E2E6E3950A5EC21F003
:104BD80036A2F1EF25F0F3EF25F0F8EF25F0010EFE
:104BE8002E6E3950A5EC21F06A0E3924376E386ADA
:104BF8000F0E382237C0D9FF38C0DAFF36C0DFFFC2
:104C08001200000E0001766F000E756F18EF26F087
:104C180074C067F0686B72C069F073C06AF0FBEC2F
:104C280021F00001754B762B75517025D96E7651A0
:104C38007121DA6EDF50746F7451D8A426EF26F014
:104C480028EF26F00CEF26F0120001012F51D8A40E
:104C580030EF26F032EF26F04BEF26F0000E606EB4
:104C6800000E646E160E626E9F0E666E7B0E646E8C
:104C7800A594A38441EF26F0608660A646EF26F04F
:104C880048EF26F040EF26F0010E01012F6F1200C9
:104C980062C064F063C065F060C066F061C067F030
:104CA80064C0F6FF65C0F7FF0001644B652B66C062
:104CB800D9FF67C0DAFF664B672B0800F5CFDFFF27
:104CC800DF50D8A46AEF26F06CEF26F054EF26F0F8
:104CD8001200000173BF7BEF26F0735106E17205E5
:104CE800D8B079EF26F07BEF26F089EF26F072C076
:104CF80074F073C075F0741F751F744B752B74C0F6
:104D080072F075C073F08DEF26F072C072F073C048
:104D180073F01200000E296E000E00016D6F740E04
:104D28006C6F000E6E6F000E6F6F000E716F000ECD
:104D3800706FD6EC22F060926494A4EF26F065942C
:104D480065B4A9EF26F0ABEF26F0A3EF26F0000E2E
:104D5800226E1200000E296E000E3B6E740E3A6E23
:104D6800000E3C6E000E3D6E000E3F6E000E3E6E55
:104D78001BEC23F060926494C3EF26F0659465B44D
:104D8800C8EF26F0CAEF26F0C2EF26F0000E226E1A
:104D98001200010E01010E27000E0F23102311230C
:104DA8002950D8A4DAEF26F0DCEF26F0E6EF26F05B
:104DB800222A2250D8A4E3EF26F0E5EF26F0E6EF0A
:104DC80026F022681200010E01010E27000E0F23A3
:104DD800102311232950D8A4F4EF26F0F6EF26F07B
:104DE80000EF27F0222A2250D8A4FDEF26F0FFEF8B
:104DF80026F000EF27F02268120001EE00F0940E72
:104E0800EE6AE806FDE100EEE7F0180EEE6AE80645
:104E1800FDE100EE01F02D0EEE6AE806FDE15A9084
:104E28005A92000EF86E000175EF24F064846598BC
:104E38006082010E296E000E226E000E00016D6F59
:104E4800750E6C6F000E6E6F000E6F6F000E716F37
:104E5800000E706FD6EC22F01200648465986082B0
:104E6800010E296E000E226E000E3B6E750E3A6E14
:104E7800000E3C6E000E3D6E000E3F6E000E3E6E44
:104E88001BEC23F01200F29EF29C12C164F013C1D5
:104E980065F014C166F015C167F0F28EF28C64C03B
:104EA80060F065C061F066C062F067C063F0120030
:104EB800000160516203F3CF64F0F4CF65F06051F4
:104EC8006303F350652761516203F350652764C09B
:104ED80060F065C061F01200D40E0001D86F000EBA
:104EE800D96F000ECA6F000ECB6FD2C0CCF0D3C002
:104EF800CDF0D80ECE6F000ECF6F40EC24F012002C
:104F08000001656F65C066F02D50D8A48EEF27F0BC
:104F180090EF27F097EF27F0660E0001606F000E04
:104F2800616FD3EC23F012009DA09DEF27F09FEF57
:104F380027F0AAEF27F09EA0A4EF27F0A6EF27F00E
:104F4800AAEF27F02CEC28F017EC28F05A92110061
:104F58000001606F60C0F9F0CD90CD86CD503F0B59
:104F68008009CD6ECF0ECD16CD94CF68DE0ECE6EF5
:104F7800CD80CC9E1200A50E0001D26F7F0ED36F9C
:104F880047EC27F060C0D4F061C0D5F062C0D6F01D
:104F980063C0D7F070EC27F012008CB0D6EF27F082
:104FA800D9EF27F0010EDAEF27F0000EFF0A000113
:104FB800606F8C506019FE0B60198C6E120026EC25
:104FC80028F032EC28F003EC28F0F9EC11F029EC89
:104FD80026F0010E1FEC28F00DEC28F012009D8041
:104FE8009E900001F905D8A4FCEF27F0FEEF27F00A
:104FF80001EF28F09F8002EF28F09F901200BA94EA
:10500800BA50FC0B0209BA6E870EBA16000EBC6EB7
:105018001200D08EF198F092F09EF088F3EC27F011
:10502800F28EF28C1200010E01011227000E1323DA
:105038001423152312000001616F00016151ACECCB
:1050480027F01200D386D288FC0ED316D38E120016
:10505800CF68DE0ECE6E37EC28F012000F015E919D
:0A50680095908C9012009E901200AB
:107ECC0000787F187F4C7FD57E09024300020100A9
:107EDC00C032090400000102020100052400100157
:107EEC0004240202052406000105240100010705F3
:107EFC0081030A000209040100020A0000000705C0
:107F0C0002024000000705820240000034034D00CD
:107F1C006900630072006F00630068006900700004
:107F2C00200054006500630068006E006F006C0058
:107F3C006F0067007900200049006E0063002E007E
:107F4C001A03500072006F00640075006300740027
:107F5C0020004E0061006D0065001201000202005D
:107F6C000008D8040A0000010102000104030904FE
:107F7C004572726F72202D3E204E6F6D62726520BD
:107F8C006465206C61205461726561206D75792087
:107F9C006772616E64650D0A0048656C6C6F2057E2
:107FAC006F726C642C204D696C6C69733D20256C70
:107FBC00750D0A00546172656120637265616461BC
:107FCC0020233A2025640D0A0D0A00437265616E68
:107FDC00646F2054617265610D0A005461736B20EB
:107FEC0031005461736B2032006C64006C69006C5E
:037FFC007500000D
:020000040020DA
:08000000FFFFFFFFFFFFFFFF00
:020000040030CA
:0E00000023225E3CFFC385FF0FC00FE00F40C0
:00000001FF
